{
  "contracts/withdraw/Withdraw.sol": {
    "Withdraw": {
      "abi": [
        {
          "inputs": [
            {
              "internalType": "bytes",
              "name": "encodedBalance",
              "type": "bytes"
            },
            {
              "internalType": "bytes",
              "name": "encodedState",
              "type": "bytes"
            }
          ],
          "name": "create",
          "outputs": [
            {
              "internalType": "bool",
              "name": "",
              "type": "bool"
            }
          ],
          "stateMutability": "pure",
          "type": "function"
        },
        {
          "inputs": [],
          "name": "getRegistryInformation",
          "outputs": [
            {
              "components": [
                {
                  "internalType": "string",
                  "name": "name",
                  "type": "string"
                },
                {
                  "internalType": "address",
                  "name": "definition",
                  "type": "address"
                },
                {
                  "internalType": "string",
                  "name": "stateEncoding",
                  "type": "string"
                },
                {
                  "internalType": "string",
                  "name": "resolverEncoding",
                  "type": "string"
                }
              ],
              "internalType": "struct RegisteredTransfer",
              "name": "",
              "type": "tuple"
            }
          ],
          "stateMutability": "view",
          "type": "function"
        },
        {
          "inputs": [
            {
              "internalType": "bytes",
              "name": "encodedBalance",
              "type": "bytes"
            },
            {
              "internalType": "bytes",
              "name": "encodedState",
              "type": "bytes"
            },
            {
              "internalType": "bytes",
              "name": "encodedResolver",
              "type": "bytes"
            }
          ],
          "name": "resolve",
          "outputs": [
            {
              "components": [
                {
                  "internalType": "uint256[2]",
                  "name": "amount",
                  "type": "uint256[2]"
                },
                {
                  "internalType": "address payable[2]",
                  "name": "to",
                  "type": "address[2]"
                }
              ],
              "internalType": "struct Balance",
              "name": "",
              "type": "tuple"
            }
          ],
          "stateMutability": "pure",
          "type": "function"
        }
      ],
      "evm": {
        "bytecode": {
          "linkReferences": {},
          "object": "610120604052606f6080818152906200108160a03980516200002a91600091602090910190620000b8565b5060408051808201909152601f8082527f7475706c6528627974657320726573706f6e6465725369676e6174757265290060209092019182526200007191600191620000b8565b5060408051808201909152600880825267576974686472617760c01b6020909201918252620000a391600291620000b8565b50348015620000b157600080fd5b5062000154565b828054600181600116156101000203166002900490600052602060002090601f016020900481019282601f10620000fb57805160ff19168380011785556200012b565b828001600101855582156200012b579182015b828111156200012b5782518255916020019190600101906200010e565b50620001399291506200013d565b5090565b5b808211156200013957600081556001016200013e565b610f1d80620001646000396000f3fe608060405234801561001057600080fd5b50600436106100415760003560e01c8063206162be146100465780638ef98a7e1461006457806394184ba914610084575b600080fd5b61004e6100a4565b60405161005b9190610e35565b60405180910390f35b61007761007236600461081d565b61027b565b60405161005b9190610dcb565b6100976100923660046107b4565b610364565b60405161005b9190610b24565b6100ac610648565b6100b4610648565b604080516002805460a06020601f60001961010060018616150201909316849004928301819004028401810190945260808301818152929384939291908401828280156101425780601f1061011757610100808354040283529160200191610142565b820191906000526020600020905b81548152906001019060200180831161012557829003601f168201915b5050509183525050306020808301919091526000805460408051601f600260001961010060018716150201909416939093049283018590048502810185018252828152940193928301828280156101da5780601f106101af576101008083540402835291602001916101da565b820191906000526020600020905b8154815290600101906020018083116101bd57829003601f168201915b505050918352505060018054604080516020600284861615610100026000190190941693909304601f810184900484028201840190925281815293820193929183018282801561026b5780601f106102405761010080835404028352916020019161026b565b820191906000526020600020905b81548152906001019060200180831161024e57829003601f168201915b5050509190925250909250505090565b610283610679565b61028b61069e565b610297858701876109f0565b90506102a16106d3565b6102ad84860186610985565b90506102b7610679565b6102c3898b018b6108b3565b60408051604180825260808201909252919250606091906020820181803683370190505090508080519060200120836000015180519060200120141561030857610356565b82516040850151606086015161031f9290916104a2565b6103445760405162461bcd60e51b815260040161033b90610bf2565b60405180910390fd5b60a08401518251602001528151600090525b509998505050505050505050565b600061036e61069e565b61037a838501856109f0565b9050610384610679565b610390868801886108b3565b805160200151909150156103b65760405162461bcd60e51b815260040161033b90610d2b565b60208201516001600160a01b0316158015906103de575060408201516001600160a01b031615155b6103fa5760405162461bcd60e51b815260040161033b90610bbb565b606082015161041b5760405162461bcd60e51b815260040161033b90610d6e565b608082015161043c5760405162461bcd60e51b815260040161033b90610d9c565b80515160a083015111156104625760405162461bcd60e51b815260040161033b90610cb2565b8151602083015160608401516104799290916104a2565b6104955760405162461bcd60e51b815260040161033b90610c7b565b5060019695505050505050565b6000816001600160a01b03166104b885856104ca565b6001600160a01b031614949350505050565b6000806104d6846104ea565b90506104e2818461051a565b949350505050565b6000816040516020016104fd9190610af3565b604051602081830303815290604052805190602001209050919050565b6000815160411461053d5760405162461bcd60e51b815260040161033b90610b84565b60208201516040830151606084015160001a7f7fffffffffffffffffffffffffffffff5d576e7357a4501ddfe92f46681b20a082111561058f5760405162461bcd60e51b815260040161033b90610c39565b8060ff16601b141580156105a757508060ff16601c14155b156105c45760405162461bcd60e51b815260040161033b90610ce9565b6000600187838686604051600081526020016040526040516105e99493929190610b2f565b6020604051602081039080840390855afa15801561060b573d6000803e3d6000fd5b5050604051601f1901519150506001600160a01b03811661063e5760405162461bcd60e51b815260040161033b90610b4d565b9695505050505050565b60405180608001604052806060815260200160006001600160a01b0316815260200160608152602001606081525090565b604051806040016040528061068c6106e6565b81526020016106996106e6565b905290565b6040805160c081018252606080825260006020830181905292820183905281018290526080810182905260a081019190915290565b6040518060200160405280606081525090565b60405180604001604052806002906020820280368337509192915050565b60008083601f840112610715578182fd5b50813567ffffffffffffffff81111561072c578182fd5b60208301915083602082850101111561074457600080fd5b9250929050565b600082601f83011261075b578081fd5b813567ffffffffffffffff811115610771578182fd5b610784601f8201601f1916602001610ea8565b915080825283602082850101111561079b57600080fd5b8060208401602084013760009082016020015292915050565b600080600080604085870312156107c9578384fd5b843567ffffffffffffffff808211156107e0578586fd5b6107ec88838901610704565b90965094506020870135915080821115610804578384fd5b5061081187828801610704565b95989497509550505050565b60008060008060008060608789031215610835578182fd5b863567ffffffffffffffff8082111561084c578384fd5b6108588a838b01610704565b90985096506020890135915080821115610870578384fd5b61087c8a838b01610704565b90965094506040890135915080821115610894578384fd5b506108a189828a01610704565b979a9699509497509295939492505050565b6000608082840312156108c4578081fd5b6108ce6040610ea8565b83601f8401126108dc578182fd5b6108e66040610ea8565b808460408601878111156108f8578586fd5b855b60028110156109195782358552602094850194909201916001016108fa565b5082855287605f88011261092b578586fd5b6109356040610ea8565b935083925090506080860187101561094b578485fd5b845b600281101561097657813561096181610ecf565b8452602093840193919091019060010161094d565b50506020830152509392505050565b600060208284031215610996578081fd5b813567ffffffffffffffff808211156109ad578283fd5b90830190602082860312156109c0578283fd5b6109ca6020610ea8565b8235828111156109d8578485fd5b6109e48782860161074b565b82525095945050505050565b600060208284031215610a01578081fd5b813567ffffffffffffffff80821115610a18578283fd5b9083019060c08286031215610a2b578283fd5b610a3560c0610ea8565b823582811115610a43578485fd5b610a4f8782860161074b565b82525060208301359150610a6282610ecf565b81602082015260408301359150610a7882610ecf565b816040820152606083013560608201526080830135608082015260a083013560a082015280935050505092915050565b60008151808452815b81811015610acd57602081850181015186830182015201610ab1565b81811115610ade5782602083870101525b50601f01601f19169290920160200192915050565b7f15496e647261205369676e6564204d6573736167653a0a3332000000000000008152601981019190915260390190565b901515815260200190565b93845260ff9290921660208401526040830152606082015260800190565b60208082526018908201527f45434453413a20696e76616c6964207369676e61747572650000000000000000604082015260600190565b6020808252601f908201527f45434453413a20696e76616c6964207369676e6174757265206c656e67746800604082015260600190565b60208082526017908201527f57697468647261773a20454d5054595f5349474e455253000000000000000000604082015260600190565b60208082526027908201527f57697468647261772e7265736f6c76653a20494e56414c49445f524553504f4e6040820152664445525f53494760c81b606082015260800190565b60208082526022908201527f45434453413a20696e76616c6964207369676e6174757265202773272076616c604082015261756560f01b606082015260800190565b6020808252601f908201527f57697468647261773a20494e56414c49445f494e49544941544f525f53494700604082015260600190565b6020808252601e908201527f57697468647261773a20494e53554646494349454e545f42414c414e43450000604082015260600190565b60208082526022908201527f45434453413a20696e76616c6964207369676e6174757265202776272076616c604082015261756560f01b606082015260800190565b60208082526023908201527f57697468647261773a204e4f4e5a45524f5f524543495049454e545f42414c416040820152624e434560e81b606082015260800190565b60208082526014908201527357697468647261773a20454d5054595f4441544160601b604082015260600190565b60208082526015908201527457697468647261773a20454d5054595f4e4f4e434560581b604082015260600190565b815160808201908260005b6002811015610df5578251825260209283019290910190600101610dd6565b5050506020808401516040840160005b6002811015610e2b5782516001600160a01b031682529183019190830190600101610e05565b5050505092915050565b600060208252825160806020840152610e5160a0840182610aa8565b905060018060a01b0360208501511660408401526040840151601f1980858403016060860152610e818383610aa8565b9250606086015191508085840301608086015250610e9f8282610aa8565b95945050505050565b60405181810167ffffffffffffffff81118282101715610ec757600080fd5b604052919050565b6001600160a01b0381168114610ee457600080fd5b5056fea264697066735822122007790665297cc92d0f6e1bc38e6063de71d3fd72d21e2f20c8f9518f251f421564736f6c634300070100337475706c6528627974657320696e69746961746f725369676e61747572652c206164647265737320696e69746961746f722c206164647265737320726573706f6e6465722c206279746573333220646174612c2075696e74323536206e6f6e63652c2075696e743235362066656529",
          "opcodes": "PUSH2 0x120 PUSH1 0x40 MSTORE PUSH1 0x6F PUSH1 0x80 DUP2 DUP2 MSTORE SWAP1 PUSH3 0x1081 PUSH1 0xA0 CODECOPY DUP1 MLOAD PUSH3 0x2A SWAP2 PUSH1 0x0 SWAP2 PUSH1 0x20 SWAP1 SWAP2 ADD SWAP1 PUSH3 0xB8 JUMP JUMPDEST POP PUSH1 0x40 DUP1 MLOAD DUP1 DUP3 ADD SWAP1 SWAP2 MSTORE PUSH1 0x1F DUP1 DUP3 MSTORE PUSH32 0x7475706C6528627974657320726573706F6E6465725369676E61747572652900 PUSH1 0x20 SWAP1 SWAP3 ADD SWAP2 DUP3 MSTORE PUSH3 0x71 SWAP2 PUSH1 0x1 SWAP2 PUSH3 0xB8 JUMP JUMPDEST POP PUSH1 0x40 DUP1 MLOAD DUP1 DUP3 ADD SWAP1 SWAP2 MSTORE PUSH1 0x8 DUP1 DUP3 MSTORE PUSH8 0x5769746864726177 PUSH1 0xC0 SHL PUSH1 0x20 SWAP1 SWAP3 ADD SWAP2 DUP3 MSTORE PUSH3 0xA3 SWAP2 PUSH1 0x2 SWAP2 PUSH3 0xB8 JUMP JUMPDEST POP CALLVALUE DUP1 ISZERO PUSH3 0xB1 JUMPI PUSH1 0x0 DUP1 REVERT JUMPDEST POP PUSH3 0x154 JUMP JUMPDEST DUP3 DUP1 SLOAD PUSH1 0x1 DUP2 PUSH1 0x1 AND ISZERO PUSH2 0x100 MUL SUB AND PUSH1 0x2 SWAP1 DIV SWAP1 PUSH1 0x0 MSTORE PUSH1 0x20 PUSH1 0x0 KECCAK256 SWAP1 PUSH1 0x1F ADD PUSH1 0x20 SWAP1 DIV DUP2 ADD SWAP3 DUP3 PUSH1 0x1F LT PUSH3 0xFB JUMPI DUP1 MLOAD PUSH1 0xFF NOT AND DUP4 DUP1 ADD OR DUP6 SSTORE PUSH3 0x12B JUMP JUMPDEST DUP3 DUP1 ADD PUSH1 0x1 ADD DUP6 SSTORE DUP3 ISZERO PUSH3 0x12B JUMPI SWAP2 DUP3 ADD JUMPDEST DUP3 DUP2 GT ISZERO PUSH3 0x12B JUMPI DUP3 MLOAD DUP3 SSTORE SWAP2 PUSH1 0x20 ADD SWAP2 SWAP1 PUSH1 0x1 ADD SWAP1 PUSH3 0x10E JUMP JUMPDEST POP PUSH3 0x139 SWAP3 SWAP2 POP PUSH3 0x13D JUMP JUMPDEST POP SWAP1 JUMP JUMPDEST JUMPDEST DUP1 DUP3 GT ISZERO PUSH3 0x139 JUMPI PUSH1 0x0 DUP2 SSTORE PUSH1 0x1 ADD PUSH3 0x13E JUMP JUMPDEST PUSH2 0xF1D DUP1 PUSH3 0x164 PUSH1 0x0 CODECOPY PUSH1 0x0 RETURN INVALID PUSH1 0x80 PUSH1 0x40 MSTORE CALLVALUE DUP1 ISZERO PUSH2 0x10 JUMPI PUSH1 0x0 DUP1 REVERT JUMPDEST POP PUSH1 0x4 CALLDATASIZE LT PUSH2 0x41 JUMPI PUSH1 0x0 CALLDATALOAD PUSH1 0xE0 SHR DUP1 PUSH4 0x206162BE EQ PUSH2 0x46 JUMPI DUP1 PUSH4 0x8EF98A7E EQ PUSH2 0x64 JUMPI DUP1 PUSH4 0x94184BA9 EQ PUSH2 0x84 JUMPI JUMPDEST PUSH1 0x0 DUP1 REVERT JUMPDEST PUSH2 0x4E PUSH2 0xA4 JUMP JUMPDEST PUSH1 0x40 MLOAD PUSH2 0x5B SWAP2 SWAP1 PUSH2 0xE35 JUMP JUMPDEST PUSH1 0x40 MLOAD DUP1 SWAP2 SUB SWAP1 RETURN JUMPDEST PUSH2 0x77 PUSH2 0x72 CALLDATASIZE PUSH1 0x4 PUSH2 0x81D JUMP JUMPDEST PUSH2 0x27B JUMP JUMPDEST PUSH1 0x40 MLOAD PUSH2 0x5B SWAP2 SWAP1 PUSH2 0xDCB JUMP JUMPDEST PUSH2 0x97 PUSH2 0x92 CALLDATASIZE PUSH1 0x4 PUSH2 0x7B4 JUMP JUMPDEST PUSH2 0x364 JUMP JUMPDEST PUSH1 0x40 MLOAD PUSH2 0x5B SWAP2 SWAP1 PUSH2 0xB24 JUMP JUMPDEST PUSH2 0xAC PUSH2 0x648 JUMP JUMPDEST PUSH2 0xB4 PUSH2 0x648 JUMP JUMPDEST PUSH1 0x40 DUP1 MLOAD PUSH1 0x2 DUP1 SLOAD PUSH1 0xA0 PUSH1 0x20 PUSH1 0x1F PUSH1 0x0 NOT PUSH2 0x100 PUSH1 0x1 DUP7 AND ISZERO MUL ADD SWAP1 SWAP4 AND DUP5 SWAP1 DIV SWAP3 DUP4 ADD DUP2 SWAP1 DIV MUL DUP5 ADD DUP2 ADD SWAP1 SWAP5 MSTORE PUSH1 0x80 DUP4 ADD DUP2 DUP2 MSTORE SWAP3 SWAP4 DUP5 SWAP4 SWAP3 SWAP2 SWAP1 DUP5 ADD DUP3 DUP3 DUP1 ISZERO PUSH2 0x142 JUMPI DUP1 PUSH1 0x1F LT PUSH2 0x117 JUMPI PUSH2 0x100 DUP1 DUP4 SLOAD DIV MUL DUP4 MSTORE SWAP2 PUSH1 0x20 ADD SWAP2 PUSH2 0x142 JUMP JUMPDEST DUP3 ADD SWAP2 SWAP1 PUSH1 0x0 MSTORE PUSH1 0x20 PUSH1 0x0 KECCAK256 SWAP1 JUMPDEST DUP2 SLOAD DUP2 MSTORE SWAP1 PUSH1 0x1 ADD SWAP1 PUSH1 0x20 ADD DUP1 DUP4 GT PUSH2 0x125 JUMPI DUP3 SWAP1 SUB PUSH1 0x1F AND DUP3 ADD SWAP2 JUMPDEST POP POP POP SWAP2 DUP4 MSTORE POP POP ADDRESS PUSH1 0x20 DUP1 DUP4 ADD SWAP2 SWAP1 SWAP2 MSTORE PUSH1 0x0 DUP1 SLOAD PUSH1 0x40 DUP1 MLOAD PUSH1 0x1F PUSH1 0x2 PUSH1 0x0 NOT PUSH2 0x100 PUSH1 0x1 DUP8 AND ISZERO MUL ADD SWAP1 SWAP5 AND SWAP4 SWAP1 SWAP4 DIV SWAP3 DUP4 ADD DUP6 SWAP1 DIV DUP6 MUL DUP2 ADD DUP6 ADD DUP3 MSTORE DUP3 DUP2 MSTORE SWAP5 ADD SWAP4 SWAP3 DUP4 ADD DUP3 DUP3 DUP1 ISZERO PUSH2 0x1DA JUMPI DUP1 PUSH1 0x1F LT PUSH2 0x1AF JUMPI PUSH2 0x100 DUP1 DUP4 SLOAD DIV MUL DUP4 MSTORE SWAP2 PUSH1 0x20 ADD SWAP2 PUSH2 0x1DA JUMP JUMPDEST DUP3 ADD SWAP2 SWAP1 PUSH1 0x0 MSTORE PUSH1 0x20 PUSH1 0x0 KECCAK256 SWAP1 JUMPDEST DUP2 SLOAD DUP2 MSTORE SWAP1 PUSH1 0x1 ADD SWAP1 PUSH1 0x20 ADD DUP1 DUP4 GT PUSH2 0x1BD JUMPI DUP3 SWAP1 SUB PUSH1 0x1F AND DUP3 ADD SWAP2 JUMPDEST POP POP POP SWAP2 DUP4 MSTORE POP POP PUSH1 0x1 DUP1 SLOAD PUSH1 0x40 DUP1 MLOAD PUSH1 0x20 PUSH1 0x2 DUP5 DUP7 AND ISZERO PUSH2 0x100 MUL PUSH1 0x0 NOT ADD SWAP1 SWAP5 AND SWAP4 SWAP1 SWAP4 DIV PUSH1 0x1F DUP2 ADD DUP5 SWAP1 DIV DUP5 MUL DUP3 ADD DUP5 ADD SWAP1 SWAP3 MSTORE DUP2 DUP2 MSTORE SWAP4 DUP3 ADD SWAP4 SWAP3 SWAP2 DUP4 ADD DUP3 DUP3 DUP1 ISZERO PUSH2 0x26B JUMPI DUP1 PUSH1 0x1F LT PUSH2 0x240 JUMPI PUSH2 0x100 DUP1 DUP4 SLOAD DIV MUL DUP4 MSTORE SWAP2 PUSH1 0x20 ADD SWAP2 PUSH2 0x26B JUMP JUMPDEST DUP3 ADD SWAP2 SWAP1 PUSH1 0x0 MSTORE PUSH1 0x20 PUSH1 0x0 KECCAK256 SWAP1 JUMPDEST DUP2 SLOAD DUP2 MSTORE SWAP1 PUSH1 0x1 ADD SWAP1 PUSH1 0x20 ADD DUP1 DUP4 GT PUSH2 0x24E JUMPI DUP3 SWAP1 SUB PUSH1 0x1F AND DUP3 ADD SWAP2 JUMPDEST POP POP POP SWAP2 SWAP1 SWAP3 MSTORE POP SWAP1 SWAP3 POP POP POP SWAP1 JUMP JUMPDEST PUSH2 0x283 PUSH2 0x679 JUMP JUMPDEST PUSH2 0x28B PUSH2 0x69E JUMP JUMPDEST PUSH2 0x297 DUP6 DUP8 ADD DUP8 PUSH2 0x9F0 JUMP JUMPDEST SWAP1 POP PUSH2 0x2A1 PUSH2 0x6D3 JUMP JUMPDEST PUSH2 0x2AD DUP5 DUP7 ADD DUP7 PUSH2 0x985 JUMP JUMPDEST SWAP1 POP PUSH2 0x2B7 PUSH2 0x679 JUMP JUMPDEST PUSH2 0x2C3 DUP10 DUP12 ADD DUP12 PUSH2 0x8B3 JUMP JUMPDEST PUSH1 0x40 DUP1 MLOAD PUSH1 0x41 DUP1 DUP3 MSTORE PUSH1 0x80 DUP3 ADD SWAP1 SWAP3 MSTORE SWAP2 SWAP3 POP PUSH1 0x60 SWAP2 SWAP1 PUSH1 0x20 DUP3 ADD DUP2 DUP1 CALLDATASIZE DUP4 CALLDATACOPY ADD SWAP1 POP POP SWAP1 POP DUP1 DUP1 MLOAD SWAP1 PUSH1 0x20 ADD KECCAK256 DUP4 PUSH1 0x0 ADD MLOAD DUP1 MLOAD SWAP1 PUSH1 0x20 ADD KECCAK256 EQ ISZERO PUSH2 0x308 JUMPI PUSH2 0x356 JUMP JUMPDEST DUP3 MLOAD PUSH1 0x40 DUP6 ADD MLOAD PUSH1 0x60 DUP7 ADD MLOAD PUSH2 0x31F SWAP3 SWAP1 SWAP2 PUSH2 0x4A2 JUMP JUMPDEST PUSH2 0x344 JUMPI PUSH1 0x40 MLOAD PUSH3 0x461BCD PUSH1 0xE5 SHL DUP2 MSTORE PUSH1 0x4 ADD PUSH2 0x33B SWAP1 PUSH2 0xBF2 JUMP JUMPDEST PUSH1 0x40 MLOAD DUP1 SWAP2 SUB SWAP1 REVERT JUMPDEST PUSH1 0xA0 DUP5 ADD MLOAD DUP3 MLOAD PUSH1 0x20 ADD MSTORE DUP2 MLOAD PUSH1 0x0 SWAP1 MSTORE JUMPDEST POP SWAP10 SWAP9 POP POP POP POP POP POP POP POP POP JUMP JUMPDEST PUSH1 0x0 PUSH2 0x36E PUSH2 0x69E JUMP JUMPDEST PUSH2 0x37A DUP4 DUP6 ADD DUP6 PUSH2 0x9F0 JUMP JUMPDEST SWAP1 POP PUSH2 0x384 PUSH2 0x679 JUMP JUMPDEST PUSH2 0x390 DUP7 DUP9 ADD DUP9 PUSH2 0x8B3 JUMP JUMPDEST DUP1 MLOAD PUSH1 0x20 ADD MLOAD SWAP1 SWAP2 POP ISZERO PUSH2 0x3B6 JUMPI PUSH1 0x40 MLOAD PUSH3 0x461BCD PUSH1 0xE5 SHL DUP2 MSTORE PUSH1 0x4 ADD PUSH2 0x33B SWAP1 PUSH2 0xD2B JUMP JUMPDEST PUSH1 0x20 DUP3 ADD MLOAD PUSH1 0x1 PUSH1 0x1 PUSH1 0xA0 SHL SUB AND ISZERO DUP1 ISZERO SWAP1 PUSH2 0x3DE JUMPI POP PUSH1 0x40 DUP3 ADD MLOAD PUSH1 0x1 PUSH1 0x1 PUSH1 0xA0 SHL SUB AND ISZERO ISZERO JUMPDEST PUSH2 0x3FA JUMPI PUSH1 0x40 MLOAD PUSH3 0x461BCD PUSH1 0xE5 SHL DUP2 MSTORE PUSH1 0x4 ADD PUSH2 0x33B SWAP1 PUSH2 0xBBB JUMP JUMPDEST PUSH1 0x60 DUP3 ADD MLOAD PUSH2 0x41B JUMPI PUSH1 0x40 MLOAD PUSH3 0x461BCD PUSH1 0xE5 SHL DUP2 MSTORE PUSH1 0x4 ADD PUSH2 0x33B SWAP1 PUSH2 0xD6E JUMP JUMPDEST PUSH1 0x80 DUP3 ADD MLOAD PUSH2 0x43C JUMPI PUSH1 0x40 MLOAD PUSH3 0x461BCD PUSH1 0xE5 SHL DUP2 MSTORE PUSH1 0x4 ADD PUSH2 0x33B SWAP1 PUSH2 0xD9C JUMP JUMPDEST DUP1 MLOAD MLOAD PUSH1 0xA0 DUP4 ADD MLOAD GT ISZERO PUSH2 0x462 JUMPI PUSH1 0x40 MLOAD PUSH3 0x461BCD PUSH1 0xE5 SHL DUP2 MSTORE PUSH1 0x4 ADD PUSH2 0x33B SWAP1 PUSH2 0xCB2 JUMP JUMPDEST DUP2 MLOAD PUSH1 0x20 DUP4 ADD MLOAD PUSH1 0x60 DUP5 ADD MLOAD PUSH2 0x479 SWAP3 SWAP1 SWAP2 PUSH2 0x4A2 JUMP JUMPDEST PUSH2 0x495 JUMPI PUSH1 0x40 MLOAD PUSH3 0x461BCD PUSH1 0xE5 SHL DUP2 MSTORE PUSH1 0x4 ADD PUSH2 0x33B SWAP1 PUSH2 0xC7B JUMP JUMPDEST POP PUSH1 0x1 SWAP7 SWAP6 POP POP POP POP POP POP JUMP JUMPDEST PUSH1 0x0 DUP2 PUSH1 0x1 PUSH1 0x1 PUSH1 0xA0 SHL SUB AND PUSH2 0x4B8 DUP6 DUP6 PUSH2 0x4CA JUMP JUMPDEST PUSH1 0x1 PUSH1 0x1 PUSH1 0xA0 SHL SUB AND EQ SWAP5 SWAP4 POP POP POP POP JUMP JUMPDEST PUSH1 0x0 DUP1 PUSH2 0x4D6 DUP5 PUSH2 0x4EA JUMP JUMPDEST SWAP1 POP PUSH2 0x4E2 DUP2 DUP5 PUSH2 0x51A JUMP JUMPDEST SWAP5 SWAP4 POP POP POP POP JUMP JUMPDEST PUSH1 0x0 DUP2 PUSH1 0x40 MLOAD PUSH1 0x20 ADD PUSH2 0x4FD SWAP2 SWAP1 PUSH2 0xAF3 JUMP JUMPDEST PUSH1 0x40 MLOAD PUSH1 0x20 DUP2 DUP4 SUB SUB DUP2 MSTORE SWAP1 PUSH1 0x40 MSTORE DUP1 MLOAD SWAP1 PUSH1 0x20 ADD KECCAK256 SWAP1 POP SWAP2 SWAP1 POP JUMP JUMPDEST PUSH1 0x0 DUP2 MLOAD PUSH1 0x41 EQ PUSH2 0x53D JUMPI PUSH1 0x40 MLOAD PUSH3 0x461BCD PUSH1 0xE5 SHL DUP2 MSTORE PUSH1 0x4 ADD PUSH2 0x33B SWAP1 PUSH2 0xB84 JUMP JUMPDEST PUSH1 0x20 DUP3 ADD MLOAD PUSH1 0x40 DUP4 ADD MLOAD PUSH1 0x60 DUP5 ADD MLOAD PUSH1 0x0 BYTE PUSH32 0x7FFFFFFFFFFFFFFFFFFFFFFFFFFFFFFF5D576E7357A4501DDFE92F46681B20A0 DUP3 GT ISZERO PUSH2 0x58F JUMPI PUSH1 0x40 MLOAD PUSH3 0x461BCD PUSH1 0xE5 SHL DUP2 MSTORE PUSH1 0x4 ADD PUSH2 0x33B SWAP1 PUSH2 0xC39 JUMP JUMPDEST DUP1 PUSH1 0xFF AND PUSH1 0x1B EQ ISZERO DUP1 ISZERO PUSH2 0x5A7 JUMPI POP DUP1 PUSH1 0xFF AND PUSH1 0x1C EQ ISZERO JUMPDEST ISZERO PUSH2 0x5C4 JUMPI PUSH1 0x40 MLOAD PUSH3 0x461BCD PUSH1 0xE5 SHL DUP2 MSTORE PUSH1 0x4 ADD PUSH2 0x33B SWAP1 PUSH2 0xCE9 JUMP JUMPDEST PUSH1 0x0 PUSH1 0x1 DUP8 DUP4 DUP7 DUP7 PUSH1 0x40 MLOAD PUSH1 0x0 DUP2 MSTORE PUSH1 0x20 ADD PUSH1 0x40 MSTORE PUSH1 0x40 MLOAD PUSH2 0x5E9 SWAP5 SWAP4 SWAP3 SWAP2 SWAP1 PUSH2 0xB2F JUMP JUMPDEST PUSH1 0x20 PUSH1 0x40 MLOAD PUSH1 0x20 DUP2 SUB SWAP1 DUP1 DUP5 SUB SWAP1 DUP6 GAS STATICCALL ISZERO DUP1 ISZERO PUSH2 0x60B JUMPI RETURNDATASIZE PUSH1 0x0 DUP1 RETURNDATACOPY RETURNDATASIZE PUSH1 0x0 REVERT JUMPDEST POP POP PUSH1 0x40 MLOAD PUSH1 0x1F NOT ADD MLOAD SWAP2 POP POP PUSH1 0x1 PUSH1 0x1 PUSH1 0xA0 SHL SUB DUP2 AND PUSH2 0x63E JUMPI PUSH1 0x40 MLOAD PUSH3 0x461BCD PUSH1 0xE5 SHL DUP2 MSTORE PUSH1 0x4 ADD PUSH2 0x33B SWAP1 PUSH2 0xB4D JUMP JUMPDEST SWAP7 SWAP6 POP POP POP POP POP POP JUMP JUMPDEST PUSH1 0x40 MLOAD DUP1 PUSH1 0x80 ADD PUSH1 0x40 MSTORE DUP1 PUSH1 0x60 DUP2 MSTORE PUSH1 0x20 ADD PUSH1 0x0 PUSH1 0x1 PUSH1 0x1 PUSH1 0xA0 SHL SUB AND DUP2 MSTORE PUSH1 0x20 ADD PUSH1 0x60 DUP2 MSTORE PUSH1 0x20 ADD PUSH1 0x60 DUP2 MSTORE POP SWAP1 JUMP JUMPDEST PUSH1 0x40 MLOAD DUP1 PUSH1 0x40 ADD PUSH1 0x40 MSTORE DUP1 PUSH2 0x68C PUSH2 0x6E6 JUMP JUMPDEST DUP2 MSTORE PUSH1 0x20 ADD PUSH2 0x699 PUSH2 0x6E6 JUMP JUMPDEST SWAP1 MSTORE SWAP1 JUMP JUMPDEST PUSH1 0x40 DUP1 MLOAD PUSH1 0xC0 DUP2 ADD DUP3 MSTORE PUSH1 0x60 DUP1 DUP3 MSTORE PUSH1 0x0 PUSH1 0x20 DUP4 ADD DUP2 SWAP1 MSTORE SWAP3 DUP3 ADD DUP4 SWAP1 MSTORE DUP2 ADD DUP3 SWAP1 MSTORE PUSH1 0x80 DUP2 ADD DUP3 SWAP1 MSTORE PUSH1 0xA0 DUP2 ADD SWAP2 SWAP1 SWAP2 MSTORE SWAP1 JUMP JUMPDEST PUSH1 0x40 MLOAD DUP1 PUSH1 0x20 ADD PUSH1 0x40 MSTORE DUP1 PUSH1 0x60 DUP2 MSTORE POP SWAP1 JUMP JUMPDEST PUSH1 0x40 MLOAD DUP1 PUSH1 0x40 ADD PUSH1 0x40 MSTORE DUP1 PUSH1 0x2 SWAP1 PUSH1 0x20 DUP3 MUL DUP1 CALLDATASIZE DUP4 CALLDATACOPY POP SWAP2 SWAP3 SWAP2 POP POP JUMP JUMPDEST PUSH1 0x0 DUP1 DUP4 PUSH1 0x1F DUP5 ADD SLT PUSH2 0x715 JUMPI DUP2 DUP3 REVERT JUMPDEST POP DUP2 CALLDATALOAD PUSH8 0xFFFFFFFFFFFFFFFF DUP2 GT ISZERO PUSH2 0x72C JUMPI DUP2 DUP3 REVERT JUMPDEST PUSH1 0x20 DUP4 ADD SWAP2 POP DUP4 PUSH1 0x20 DUP3 DUP6 ADD ADD GT ISZERO PUSH2 0x744 JUMPI PUSH1 0x0 DUP1 REVERT JUMPDEST SWAP3 POP SWAP3 SWAP1 POP JUMP JUMPDEST PUSH1 0x0 DUP3 PUSH1 0x1F DUP4 ADD SLT PUSH2 0x75B JUMPI DUP1 DUP2 REVERT JUMPDEST DUP2 CALLDATALOAD PUSH8 0xFFFFFFFFFFFFFFFF DUP2 GT ISZERO PUSH2 0x771 JUMPI DUP2 DUP3 REVERT JUMPDEST PUSH2 0x784 PUSH1 0x1F DUP3 ADD PUSH1 0x1F NOT AND PUSH1 0x20 ADD PUSH2 0xEA8 JUMP JUMPDEST SWAP2 POP DUP1 DUP3 MSTORE DUP4 PUSH1 0x20 DUP3 DUP6 ADD ADD GT ISZERO PUSH2 0x79B JUMPI PUSH1 0x0 DUP1 REVERT JUMPDEST DUP1 PUSH1 0x20 DUP5 ADD PUSH1 0x20 DUP5 ADD CALLDATACOPY PUSH1 0x0 SWAP1 DUP3 ADD PUSH1 0x20 ADD MSTORE SWAP3 SWAP2 POP POP JUMP JUMPDEST PUSH1 0x0 DUP1 PUSH1 0x0 DUP1 PUSH1 0x40 DUP6 DUP8 SUB SLT ISZERO PUSH2 0x7C9 JUMPI DUP4 DUP5 REVERT JUMPDEST DUP5 CALLDATALOAD PUSH8 0xFFFFFFFFFFFFFFFF DUP1 DUP3 GT ISZERO PUSH2 0x7E0 JUMPI DUP6 DUP7 REVERT JUMPDEST PUSH2 0x7EC DUP9 DUP4 DUP10 ADD PUSH2 0x704 JUMP JUMPDEST SWAP1 SWAP7 POP SWAP5 POP PUSH1 0x20 DUP8 ADD CALLDATALOAD SWAP2 POP DUP1 DUP3 GT ISZERO PUSH2 0x804 JUMPI DUP4 DUP5 REVERT JUMPDEST POP PUSH2 0x811 DUP8 DUP3 DUP9 ADD PUSH2 0x704 JUMP JUMPDEST SWAP6 SWAP9 SWAP5 SWAP8 POP SWAP6 POP POP POP POP JUMP JUMPDEST PUSH1 0x0 DUP1 PUSH1 0x0 DUP1 PUSH1 0x0 DUP1 PUSH1 0x60 DUP8 DUP10 SUB SLT ISZERO PUSH2 0x835 JUMPI DUP2 DUP3 REVERT JUMPDEST DUP7 CALLDATALOAD PUSH8 0xFFFFFFFFFFFFFFFF DUP1 DUP3 GT ISZERO PUSH2 0x84C JUMPI DUP4 DUP5 REVERT JUMPDEST PUSH2 0x858 DUP11 DUP4 DUP12 ADD PUSH2 0x704 JUMP JUMPDEST SWAP1 SWAP9 POP SWAP7 POP PUSH1 0x20 DUP10 ADD CALLDATALOAD SWAP2 POP DUP1 DUP3 GT ISZERO PUSH2 0x870 JUMPI DUP4 DUP5 REVERT JUMPDEST PUSH2 0x87C DUP11 DUP4 DUP12 ADD PUSH2 0x704 JUMP JUMPDEST SWAP1 SWAP7 POP SWAP5 POP PUSH1 0x40 DUP10 ADD CALLDATALOAD SWAP2 POP DUP1 DUP3 GT ISZERO PUSH2 0x894 JUMPI DUP4 DUP5 REVERT JUMPDEST POP PUSH2 0x8A1 DUP10 DUP3 DUP11 ADD PUSH2 0x704 JUMP JUMPDEST SWAP8 SWAP11 SWAP7 SWAP10 POP SWAP5 SWAP8 POP SWAP3 SWAP6 SWAP4 SWAP5 SWAP3 POP POP POP JUMP JUMPDEST PUSH1 0x0 PUSH1 0x80 DUP3 DUP5 SUB SLT ISZERO PUSH2 0x8C4 JUMPI DUP1 DUP2 REVERT JUMPDEST PUSH2 0x8CE PUSH1 0x40 PUSH2 0xEA8 JUMP JUMPDEST DUP4 PUSH1 0x1F DUP5 ADD SLT PUSH2 0x8DC JUMPI DUP2 DUP3 REVERT JUMPDEST PUSH2 0x8E6 PUSH1 0x40 PUSH2 0xEA8 JUMP JUMPDEST DUP1 DUP5 PUSH1 0x40 DUP7 ADD DUP8 DUP2 GT ISZERO PUSH2 0x8F8 JUMPI DUP6 DUP7 REVERT JUMPDEST DUP6 JUMPDEST PUSH1 0x2 DUP2 LT ISZERO PUSH2 0x919 JUMPI DUP3 CALLDATALOAD DUP6 MSTORE PUSH1 0x20 SWAP5 DUP6 ADD SWAP5 SWAP1 SWAP3 ADD SWAP2 PUSH1 0x1 ADD PUSH2 0x8FA JUMP JUMPDEST POP DUP3 DUP6 MSTORE DUP8 PUSH1 0x5F DUP9 ADD SLT PUSH2 0x92B JUMPI DUP6 DUP7 REVERT JUMPDEST PUSH2 0x935 PUSH1 0x40 PUSH2 0xEA8 JUMP JUMPDEST SWAP4 POP DUP4 SWAP3 POP SWAP1 POP PUSH1 0x80 DUP7 ADD DUP8 LT ISZERO PUSH2 0x94B JUMPI DUP5 DUP6 REVERT JUMPDEST DUP5 JUMPDEST PUSH1 0x2 DUP2 LT ISZERO PUSH2 0x976 JUMPI DUP2 CALLDATALOAD PUSH2 0x961 DUP2 PUSH2 0xECF JUMP JUMPDEST DUP5 MSTORE PUSH1 0x20 SWAP4 DUP5 ADD SWAP4 SWAP2 SWAP1 SWAP2 ADD SWAP1 PUSH1 0x1 ADD PUSH2 0x94D JUMP JUMPDEST POP POP PUSH1 0x20 DUP4 ADD MSTORE POP SWAP4 SWAP3 POP POP POP JUMP JUMPDEST PUSH1 0x0 PUSH1 0x20 DUP3 DUP5 SUB SLT ISZERO PUSH2 0x996 JUMPI DUP1 DUP2 REVERT JUMPDEST DUP2 CALLDATALOAD PUSH8 0xFFFFFFFFFFFFFFFF DUP1 DUP3 GT ISZERO PUSH2 0x9AD JUMPI DUP3 DUP4 REVERT JUMPDEST SWAP1 DUP4 ADD SWAP1 PUSH1 0x20 DUP3 DUP7 SUB SLT ISZERO PUSH2 0x9C0 JUMPI DUP3 DUP4 REVERT JUMPDEST PUSH2 0x9CA PUSH1 0x20 PUSH2 0xEA8 JUMP JUMPDEST DUP3 CALLDATALOAD DUP3 DUP2 GT ISZERO PUSH2 0x9D8 JUMPI DUP5 DUP6 REVERT JUMPDEST PUSH2 0x9E4 DUP8 DUP3 DUP7 ADD PUSH2 0x74B JUMP JUMPDEST DUP3 MSTORE POP SWAP6 SWAP5 POP POP POP POP POP JUMP JUMPDEST PUSH1 0x0 PUSH1 0x20 DUP3 DUP5 SUB SLT ISZERO PUSH2 0xA01 JUMPI DUP1 DUP2 REVERT JUMPDEST DUP2 CALLDATALOAD PUSH8 0xFFFFFFFFFFFFFFFF DUP1 DUP3 GT ISZERO PUSH2 0xA18 JUMPI DUP3 DUP4 REVERT JUMPDEST SWAP1 DUP4 ADD SWAP1 PUSH1 0xC0 DUP3 DUP7 SUB SLT ISZERO PUSH2 0xA2B JUMPI DUP3 DUP4 REVERT JUMPDEST PUSH2 0xA35 PUSH1 0xC0 PUSH2 0xEA8 JUMP JUMPDEST DUP3 CALLDATALOAD DUP3 DUP2 GT ISZERO PUSH2 0xA43 JUMPI DUP5 DUP6 REVERT JUMPDEST PUSH2 0xA4F DUP8 DUP3 DUP7 ADD PUSH2 0x74B JUMP JUMPDEST DUP3 MSTORE POP PUSH1 0x20 DUP4 ADD CALLDATALOAD SWAP2 POP PUSH2 0xA62 DUP3 PUSH2 0xECF JUMP JUMPDEST DUP2 PUSH1 0x20 DUP3 ADD MSTORE PUSH1 0x40 DUP4 ADD CALLDATALOAD SWAP2 POP PUSH2 0xA78 DUP3 PUSH2 0xECF JUMP JUMPDEST DUP2 PUSH1 0x40 DUP3 ADD MSTORE PUSH1 0x60 DUP4 ADD CALLDATALOAD PUSH1 0x60 DUP3 ADD MSTORE PUSH1 0x80 DUP4 ADD CALLDATALOAD PUSH1 0x80 DUP3 ADD MSTORE PUSH1 0xA0 DUP4 ADD CALLDATALOAD PUSH1 0xA0 DUP3 ADD MSTORE DUP1 SWAP4 POP POP POP POP SWAP3 SWAP2 POP POP JUMP JUMPDEST PUSH1 0x0 DUP2 MLOAD DUP1 DUP5 MSTORE DUP2 JUMPDEST DUP2 DUP2 LT ISZERO PUSH2 0xACD JUMPI PUSH1 0x20 DUP2 DUP6 ADD DUP2 ADD MLOAD DUP7 DUP4 ADD DUP3 ADD MSTORE ADD PUSH2 0xAB1 JUMP JUMPDEST DUP2 DUP2 GT ISZERO PUSH2 0xADE JUMPI DUP3 PUSH1 0x20 DUP4 DUP8 ADD ADD MSTORE JUMPDEST POP PUSH1 0x1F ADD PUSH1 0x1F NOT AND SWAP3 SWAP1 SWAP3 ADD PUSH1 0x20 ADD SWAP3 SWAP2 POP POP JUMP JUMPDEST PUSH32 0x15496E647261205369676E6564204D6573736167653A0A333200000000000000 DUP2 MSTORE PUSH1 0x19 DUP2 ADD SWAP2 SWAP1 SWAP2 MSTORE PUSH1 0x39 ADD SWAP1 JUMP JUMPDEST SWAP1 ISZERO ISZERO DUP2 MSTORE PUSH1 0x20 ADD SWAP1 JUMP JUMPDEST SWAP4 DUP5 MSTORE PUSH1 0xFF SWAP3 SWAP1 SWAP3 AND PUSH1 0x20 DUP5 ADD MSTORE PUSH1 0x40 DUP4 ADD MSTORE PUSH1 0x60 DUP3 ADD MSTORE PUSH1 0x80 ADD SWAP1 JUMP JUMPDEST PUSH1 0x20 DUP1 DUP3 MSTORE PUSH1 0x18 SWAP1 DUP3 ADD MSTORE PUSH32 0x45434453413A20696E76616C6964207369676E61747572650000000000000000 PUSH1 0x40 DUP3 ADD MSTORE PUSH1 0x60 ADD SWAP1 JUMP JUMPDEST PUSH1 0x20 DUP1 DUP3 MSTORE PUSH1 0x1F SWAP1 DUP3 ADD MSTORE PUSH32 0x45434453413A20696E76616C6964207369676E6174757265206C656E67746800 PUSH1 0x40 DUP3 ADD MSTORE PUSH1 0x60 ADD SWAP1 JUMP JUMPDEST PUSH1 0x20 DUP1 DUP3 MSTORE PUSH1 0x17 SWAP1 DUP3 ADD MSTORE PUSH32 0x57697468647261773A20454D5054595F5349474E455253000000000000000000 PUSH1 0x40 DUP3 ADD MSTORE PUSH1 0x60 ADD SWAP1 JUMP JUMPDEST PUSH1 0x20 DUP1 DUP3 MSTORE PUSH1 0x27 SWAP1 DUP3 ADD MSTORE PUSH32 0x57697468647261772E7265736F6C76653A20494E56414C49445F524553504F4E PUSH1 0x40 DUP3 ADD MSTORE PUSH7 0x4445525F534947 PUSH1 0xC8 SHL PUSH1 0x60 DUP3 ADD MSTORE PUSH1 0x80 ADD SWAP1 JUMP JUMPDEST PUSH1 0x20 DUP1 DUP3 MSTORE PUSH1 0x22 SWAP1 DUP3 ADD MSTORE PUSH32 0x45434453413A20696E76616C6964207369676E6174757265202773272076616C PUSH1 0x40 DUP3 ADD MSTORE PUSH2 0x7565 PUSH1 0xF0 SHL PUSH1 0x60 DUP3 ADD MSTORE PUSH1 0x80 ADD SWAP1 JUMP JUMPDEST PUSH1 0x20 DUP1 DUP3 MSTORE PUSH1 0x1F SWAP1 DUP3 ADD MSTORE PUSH32 0x57697468647261773A20494E56414C49445F494E49544941544F525F53494700 PUSH1 0x40 DUP3 ADD MSTORE PUSH1 0x60 ADD SWAP1 JUMP JUMPDEST PUSH1 0x20 DUP1 DUP3 MSTORE PUSH1 0x1E SWAP1 DUP3 ADD MSTORE PUSH32 0x57697468647261773A20494E53554646494349454E545F42414C414E43450000 PUSH1 0x40 DUP3 ADD MSTORE PUSH1 0x60 ADD SWAP1 JUMP JUMPDEST PUSH1 0x20 DUP1 DUP3 MSTORE PUSH1 0x22 SWAP1 DUP3 ADD MSTORE PUSH32 0x45434453413A20696E76616C6964207369676E6174757265202776272076616C PUSH1 0x40 DUP3 ADD MSTORE PUSH2 0x7565 PUSH1 0xF0 SHL PUSH1 0x60 DUP3 ADD MSTORE PUSH1 0x80 ADD SWAP1 JUMP JUMPDEST PUSH1 0x20 DUP1 DUP3 MSTORE PUSH1 0x23 SWAP1 DUP3 ADD MSTORE PUSH32 0x57697468647261773A204E4F4E5A45524F5F524543495049454E545F42414C41 PUSH1 0x40 DUP3 ADD MSTORE PUSH3 0x4E4345 PUSH1 0xE8 SHL PUSH1 0x60 DUP3 ADD MSTORE PUSH1 0x80 ADD SWAP1 JUMP JUMPDEST PUSH1 0x20 DUP1 DUP3 MSTORE PUSH1 0x14 SWAP1 DUP3 ADD MSTORE PUSH20 0x57697468647261773A20454D5054595F44415441 PUSH1 0x60 SHL PUSH1 0x40 DUP3 ADD MSTORE PUSH1 0x60 ADD SWAP1 JUMP JUMPDEST PUSH1 0x20 DUP1 DUP3 MSTORE PUSH1 0x15 SWAP1 DUP3 ADD MSTORE PUSH21 0x57697468647261773A20454D5054595F4E4F4E4345 PUSH1 0x58 SHL PUSH1 0x40 DUP3 ADD MSTORE PUSH1 0x60 ADD SWAP1 JUMP JUMPDEST DUP2 MLOAD PUSH1 0x80 DUP3 ADD SWAP1 DUP3 PUSH1 0x0 JUMPDEST PUSH1 0x2 DUP2 LT ISZERO PUSH2 0xDF5 JUMPI DUP3 MLOAD DUP3 MSTORE PUSH1 0x20 SWAP3 DUP4 ADD SWAP3 SWAP1 SWAP2 ADD SWAP1 PUSH1 0x1 ADD PUSH2 0xDD6 JUMP JUMPDEST POP POP POP PUSH1 0x20 DUP1 DUP5 ADD MLOAD PUSH1 0x40 DUP5 ADD PUSH1 0x0 JUMPDEST PUSH1 0x2 DUP2 LT ISZERO PUSH2 0xE2B JUMPI DUP3 MLOAD PUSH1 0x1 PUSH1 0x1 PUSH1 0xA0 SHL SUB AND DUP3 MSTORE SWAP2 DUP4 ADD SWAP2 SWAP1 DUP4 ADD SWAP1 PUSH1 0x1 ADD PUSH2 0xE05 JUMP JUMPDEST POP POP POP POP SWAP3 SWAP2 POP POP JUMP JUMPDEST PUSH1 0x0 PUSH1 0x20 DUP3 MSTORE DUP3 MLOAD PUSH1 0x80 PUSH1 0x20 DUP5 ADD MSTORE PUSH2 0xE51 PUSH1 0xA0 DUP5 ADD DUP3 PUSH2 0xAA8 JUMP JUMPDEST SWAP1 POP PUSH1 0x1 DUP1 PUSH1 0xA0 SHL SUB PUSH1 0x20 DUP6 ADD MLOAD AND PUSH1 0x40 DUP5 ADD MSTORE PUSH1 0x40 DUP5 ADD MLOAD PUSH1 0x1F NOT DUP1 DUP6 DUP5 SUB ADD PUSH1 0x60 DUP7 ADD MSTORE PUSH2 0xE81 DUP4 DUP4 PUSH2 0xAA8 JUMP JUMPDEST SWAP3 POP PUSH1 0x60 DUP7 ADD MLOAD SWAP2 POP DUP1 DUP6 DUP5 SUB ADD PUSH1 0x80 DUP7 ADD MSTORE POP PUSH2 0xE9F DUP3 DUP3 PUSH2 0xAA8 JUMP JUMPDEST SWAP6 SWAP5 POP POP POP POP POP JUMP JUMPDEST PUSH1 0x40 MLOAD DUP2 DUP2 ADD PUSH8 0xFFFFFFFFFFFFFFFF DUP2 GT DUP3 DUP3 LT OR ISZERO PUSH2 0xEC7 JUMPI PUSH1 0x0 DUP1 REVERT JUMPDEST PUSH1 0x40 MSTORE SWAP2 SWAP1 POP JUMP JUMPDEST PUSH1 0x1 PUSH1 0x1 PUSH1 0xA0 SHL SUB DUP2 AND DUP2 EQ PUSH2 0xEE4 JUMPI PUSH1 0x0 DUP1 REVERT JUMPDEST POP JUMP INVALID LOG2 PUSH5 0x6970667358 0x22 SLT KECCAK256 SMOD PUSH26 0x665297CC92D0F6E1BC38E6063DE71D3FD72D21E2F20C8F9518F 0x25 0x1F TIMESTAMP ISZERO PUSH5 0x736F6C6343 STOP SMOD ADD STOP CALLER PUSH21 0x75706C6528627974657320696E69746961746F7253 PUSH10 0x676E61747572652C2061 PUSH5 0x6472657373 KECCAK256 PUSH10 0x6E69746961746F722C20 PUSH2 0x6464 PUSH19 0x65737320726573706F6E6465722C2062797465 PUSH20 0x333220646174612C2075696E74323536206E6F6E PUSH4 0x652C2075 PUSH10 0x6E743235362066656529 "
        },
        "methodIdentifiers": {
          "create(bytes,bytes)": "94184ba9",
          "getRegistryInformation()": "206162be",
          "resolve(bytes,bytes,bytes)": "8ef98a7e"
        }
      }
    }
  }
}