{
  "contracts/hashlock/Hashlock.sol": {
    "HashlockTransfer": {
      "abi": [
        {
          "inputs": [
            {
              "internalType": "bytes",
              "name": "encodedBalance",
              "type": "bytes"
            },
            {
              "internalType": "bytes",
              "name": "encodedState",
              "type": "bytes"
            }
          ],
          "name": "create",
          "outputs": [
            {
              "internalType": "bool",
              "name": "",
              "type": "bool"
            }
          ],
          "stateMutability": "view",
          "type": "function"
        },
        {
          "inputs": [],
          "name": "getRegistryInformation",
          "outputs": [
            {
              "components": [
                {
                  "internalType": "string",
                  "name": "name",
                  "type": "string"
                },
                {
                  "internalType": "address",
                  "name": "definition",
                  "type": "address"
                },
                {
                  "internalType": "string",
                  "name": "stateEncoding",
                  "type": "string"
                },
                {
                  "internalType": "string",
                  "name": "resolverEncoding",
                  "type": "string"
                }
              ],
              "internalType": "struct RegisteredTransfer",
              "name": "",
              "type": "tuple"
            }
          ],
          "stateMutability": "view",
          "type": "function"
        },
        {
          "inputs": [
            {
              "internalType": "bytes",
              "name": "encodedBalance",
              "type": "bytes"
            },
            {
              "internalType": "bytes",
              "name": "encodedState",
              "type": "bytes"
            },
            {
              "internalType": "bytes",
              "name": "encodedResolver",
              "type": "bytes"
            }
          ],
          "name": "resolve",
          "outputs": [
            {
              "components": [
                {
                  "internalType": "uint256[2]",
                  "name": "amount",
                  "type": "uint256[2]"
                },
                {
                  "internalType": "address payable[2]",
                  "name": "to",
                  "type": "address[2]"
                }
              ],
              "internalType": "struct Balance",
              "name": "",
              "type": "tuple"
            }
          ],
          "stateMutability": "view",
          "type": "function"
        }
      ],
      "evm": {
        "bytecode": {
          "linkReferences": {},
          "object": "60e06040526027608081815290610c7160a0398051610026916000916020909101906100b6565b506040805180820190915260178082527f7475706c65286279746573333220707265496d61676529000000000000000000602090920191825261006b916001916100b6565b506040805180820190915260108082526f2430b9b43637b1b5aa3930b739b332b960811b60209092019182526100a3916002916100b6565b503480156100b057600080fd5b50610149565b828054600181600116156101000203166002900490600052602060002090601f016020900481019282601f106100f757805160ff1916838001178555610124565b82800160010185558215610124579182015b82811115610124578251825591602001919060010190610109565b50610130929150610134565b5090565b5b808211156101305760008155600101610135565b610b19806101586000396000f3fe608060405234801561001057600080fd5b50600436106100415760003560e01c8063206162be146100465780638ef98a7e1461006457806394184ba914610084575b600080fd5b61004e6100a4565b60405161005b9190610a19565b60405180910390f35b6100776100723660046105dd565b61027b565b60405161005b91906109af565b610097610092366004610574565b6103cb565b60405161005b91906107f0565b6100ac610478565b6100b4610478565b604080516002805460a06020601f60001961010060018616150201909316849004928301819004028401810190945260808301818152929384939291908401828280156101425780601f1061011757610100808354040283529160200191610142565b820191906000526020600020905b81548152906001019060200180831161012557829003601f168201915b5050509183525050306020808301919091526000805460408051601f600260001961010060018716150201909416939093049283018590048502810185018252828152940193928301828280156101da5780601f106101af576101008083540402835291602001916101da565b820191906000526020600020905b8154815290600101906020018083116101bd57829003601f168201915b505050918352505060018054604080516020600284861615610100026000190190941693909304601f810184900484028201840190925281815293820193929183018282801561026b5780601f106102405761010080835404028352916020019161026b565b820191906000526020600020905b81548152906001019060200180831161024e57829003601f168201915b5050509190925250909250505090565b6102836104a9565b61028b6104ce565b61029785870187610775565b90506102a16104e5565b6102ad84860186610750565b90506102b76104a9565b6102c3898b018b610673565b8251909150158015906102e5575043836020015111806102e557506020830151155b1561039f5760006002836000015160405160200161030391906107fb565b60408051601f198184030181529082905261031d916107d4565b602060405180830381855afa15801561033a573d6000803e3d6000fd5b5050506040513d601f19601f8201168201806040525081019061035d919061055c565b845190915081146103895760405162461bcd60e51b815260040161038090610861565b60405180910390fd5b50805180516020909101528051600090526103be565b8151156103be5760405162461bcd60e51b815260040161038090610913565b9998505050505050505050565b60006103d56104ce565b6103e183850185610775565b90506103eb6104a9565b6103f786880188610673565b8051602001519091501561041d5760405162461bcd60e51b815260040161038090610804565b815161043b5760405162461bcd60e51b81526004016103809061095c565b438260200151118061044f57506020820151155b61046b5760405162461bcd60e51b8152600401610380906108be565b5060019695505050505050565b60405180608001604052806060815260200160006001600160a01b0316815260200160608152602001606081525090565b60405180604001604052806104bc6104f7565b81526020016104c96104f7565b905290565b604080518082019091526000808252602082015290565b60408051602081019091526000815290565b60405180604001604052806002906020820280368337509192915050565b60008083601f840112610526578182fd5b50813567ffffffffffffffff81111561053d578182fd5b60208301915083602082850101111561055557600080fd5b9250929050565b60006020828403121561056d578081fd5b5051919050565b60008060008060408587031215610589578283fd5b843567ffffffffffffffff808211156105a0578485fd5b6105ac88838901610515565b909650945060208701359150808211156105c4578384fd5b506105d187828801610515565b95989497509550505050565b600080600080600080606087890312156105f5578182fd5b863567ffffffffffffffff8082111561060c578384fd5b6106188a838b01610515565b90985096506020890135915080821115610630578384fd5b61063c8a838b01610515565b90965094506040890135915080821115610654578384fd5b5061066189828a01610515565b979a9699509497509295939492505050565b600060808284031215610684578081fd5b61068e6040610a8c565b83601f84011261069c578182fd5b6106a66040610a8c565b808460408601878111156106b8578586fd5b855b60028110156106d95782358552602094850194909201916001016106ba565b5082855287605f8801126106eb578586fd5b6106f56040610a8c565b935083925090506080860187101561070b578485fd5b845b60028110156107415781356001600160a01b038116811461072c578687fd5b8452602093840193919091019060010161070d565b50506020830152509392505050565b600060208284031215610761578081fd5b61076b6020610a8c565b9135825250919050565b600060408284031215610786578081fd5b6107906040610a8c565b82358152602083013560208201528091505092915050565b600081518084526107c0816020860160208601610ab3565b601f01601f19169290920160200192915050565b600082516107e6818460208701610ab3565b9190910192915050565b901515815260200190565b90815260200190565b6020808252603e908201527f43616e6e6f742063726561746520686173686c6f636b207472616e736665722060408201527f77697468206e6f6e7a65726f20726563697069656e742062616c616e63650000606082015260800190565b60208082526039908201527f486173682067656e6572617465642066726f6d20707265696d61676520646f6560408201527f73206e6f74206d61746368206861736820696e20737461746500000000000000606082015260800190565b60208082526035908201527f43616e6e6f742063726561746520686173686c6f636b207472616e73666572206040820152747769746820657870697265642074696d656c6f636b60581b606082015260800190565b60208082526029908201527f4d7573742070726f7669646520656d707479206861736820746f2063616e63656040820152681b081c185e5b595b9d60ba1b606082015260800190565b60208082526033908201527f43616e6e6f742063726561746520686173686c6f636b207472616e73666572206040820152720eed2e8d040cadae0e8f240d8dec6d690c2e6d606b1b606082015260800190565b815160808201908260005b60028110156109d95782518252602092830192909101906001016109ba565b5050506020808401516040840160005b6002811015610a0f5782516001600160a01b0316825291830191908301906001016109e9565b5050505092915050565b600060208252825160806020840152610a3560a08401826107a8565b905060018060a01b0360208501511660408401526040840151601f1980858403016060860152610a6583836107a8565b9250606086015191508085840301608086015250610a8382826107a8565b95945050505050565b60405181810167ffffffffffffffff81118282101715610aab57600080fd5b604052919050565b60005b83811015610ace578181015183820152602001610ab6565b83811115610add576000848401525b5050505056fea26469706673582212204629debcc4abd9e3ea4f4720142eef0503de5eb05addeb749a82aea8f4e1002e64736f6c634300070100337475706c652862797465733332206c6f636b486173682c2075696e743235362065787069727929",
          "opcodes": "PUSH1 0xE0 PUSH1 0x40 MSTORE PUSH1 0x27 PUSH1 0x80 DUP2 DUP2 MSTORE SWAP1 PUSH2 0xC71 PUSH1 0xA0 CODECOPY DUP1 MLOAD PUSH2 0x26 SWAP2 PUSH1 0x0 SWAP2 PUSH1 0x20 SWAP1 SWAP2 ADD SWAP1 PUSH2 0xB6 JUMP JUMPDEST POP PUSH1 0x40 DUP1 MLOAD DUP1 DUP3 ADD SWAP1 SWAP2 MSTORE PUSH1 0x17 DUP1 DUP3 MSTORE PUSH32 0x7475706C65286279746573333220707265496D61676529000000000000000000 PUSH1 0x20 SWAP1 SWAP3 ADD SWAP2 DUP3 MSTORE PUSH2 0x6B SWAP2 PUSH1 0x1 SWAP2 PUSH2 0xB6 JUMP JUMPDEST POP PUSH1 0x40 DUP1 MLOAD DUP1 DUP3 ADD SWAP1 SWAP2 MSTORE PUSH1 0x10 DUP1 DUP3 MSTORE PUSH16 0x2430B9B43637B1B5AA3930B739B332B9 PUSH1 0x81 SHL PUSH1 0x20 SWAP1 SWAP3 ADD SWAP2 DUP3 MSTORE PUSH2 0xA3 SWAP2 PUSH1 0x2 SWAP2 PUSH2 0xB6 JUMP JUMPDEST POP CALLVALUE DUP1 ISZERO PUSH2 0xB0 JUMPI PUSH1 0x0 DUP1 REVERT JUMPDEST POP PUSH2 0x149 JUMP JUMPDEST DUP3 DUP1 SLOAD PUSH1 0x1 DUP2 PUSH1 0x1 AND ISZERO PUSH2 0x100 MUL SUB AND PUSH1 0x2 SWAP1 DIV SWAP1 PUSH1 0x0 MSTORE PUSH1 0x20 PUSH1 0x0 KECCAK256 SWAP1 PUSH1 0x1F ADD PUSH1 0x20 SWAP1 DIV DUP2 ADD SWAP3 DUP3 PUSH1 0x1F LT PUSH2 0xF7 JUMPI DUP1 MLOAD PUSH1 0xFF NOT AND DUP4 DUP1 ADD OR DUP6 SSTORE PUSH2 0x124 JUMP JUMPDEST DUP3 DUP1 ADD PUSH1 0x1 ADD DUP6 SSTORE DUP3 ISZERO PUSH2 0x124 JUMPI SWAP2 DUP3 ADD JUMPDEST DUP3 DUP2 GT ISZERO PUSH2 0x124 JUMPI DUP3 MLOAD DUP3 SSTORE SWAP2 PUSH1 0x20 ADD SWAP2 SWAP1 PUSH1 0x1 ADD SWAP1 PUSH2 0x109 JUMP JUMPDEST POP PUSH2 0x130 SWAP3 SWAP2 POP PUSH2 0x134 JUMP JUMPDEST POP SWAP1 JUMP JUMPDEST JUMPDEST DUP1 DUP3 GT ISZERO PUSH2 0x130 JUMPI PUSH1 0x0 DUP2 SSTORE PUSH1 0x1 ADD PUSH2 0x135 JUMP JUMPDEST PUSH2 0xB19 DUP1 PUSH2 0x158 PUSH1 0x0 CODECOPY PUSH1 0x0 RETURN INVALID PUSH1 0x80 PUSH1 0x40 MSTORE CALLVALUE DUP1 ISZERO PUSH2 0x10 JUMPI PUSH1 0x0 DUP1 REVERT JUMPDEST POP PUSH1 0x4 CALLDATASIZE LT PUSH2 0x41 JUMPI PUSH1 0x0 CALLDATALOAD PUSH1 0xE0 SHR DUP1 PUSH4 0x206162BE EQ PUSH2 0x46 JUMPI DUP1 PUSH4 0x8EF98A7E EQ PUSH2 0x64 JUMPI DUP1 PUSH4 0x94184BA9 EQ PUSH2 0x84 JUMPI JUMPDEST PUSH1 0x0 DUP1 REVERT JUMPDEST PUSH2 0x4E PUSH2 0xA4 JUMP JUMPDEST PUSH1 0x40 MLOAD PUSH2 0x5B SWAP2 SWAP1 PUSH2 0xA19 JUMP JUMPDEST PUSH1 0x40 MLOAD DUP1 SWAP2 SUB SWAP1 RETURN JUMPDEST PUSH2 0x77 PUSH2 0x72 CALLDATASIZE PUSH1 0x4 PUSH2 0x5DD JUMP JUMPDEST PUSH2 0x27B JUMP JUMPDEST PUSH1 0x40 MLOAD PUSH2 0x5B SWAP2 SWAP1 PUSH2 0x9AF JUMP JUMPDEST PUSH2 0x97 PUSH2 0x92 CALLDATASIZE PUSH1 0x4 PUSH2 0x574 JUMP JUMPDEST PUSH2 0x3CB JUMP JUMPDEST PUSH1 0x40 MLOAD PUSH2 0x5B SWAP2 SWAP1 PUSH2 0x7F0 JUMP JUMPDEST PUSH2 0xAC PUSH2 0x478 JUMP JUMPDEST PUSH2 0xB4 PUSH2 0x478 JUMP JUMPDEST PUSH1 0x40 DUP1 MLOAD PUSH1 0x2 DUP1 SLOAD PUSH1 0xA0 PUSH1 0x20 PUSH1 0x1F PUSH1 0x0 NOT PUSH2 0x100 PUSH1 0x1 DUP7 AND ISZERO MUL ADD SWAP1 SWAP4 AND DUP5 SWAP1 DIV SWAP3 DUP4 ADD DUP2 SWAP1 DIV MUL DUP5 ADD DUP2 ADD SWAP1 SWAP5 MSTORE PUSH1 0x80 DUP4 ADD DUP2 DUP2 MSTORE SWAP3 SWAP4 DUP5 SWAP4 SWAP3 SWAP2 SWAP1 DUP5 ADD DUP3 DUP3 DUP1 ISZERO PUSH2 0x142 JUMPI DUP1 PUSH1 0x1F LT PUSH2 0x117 JUMPI PUSH2 0x100 DUP1 DUP4 SLOAD DIV MUL DUP4 MSTORE SWAP2 PUSH1 0x20 ADD SWAP2 PUSH2 0x142 JUMP JUMPDEST DUP3 ADD SWAP2 SWAP1 PUSH1 0x0 MSTORE PUSH1 0x20 PUSH1 0x0 KECCAK256 SWAP1 JUMPDEST DUP2 SLOAD DUP2 MSTORE SWAP1 PUSH1 0x1 ADD SWAP1 PUSH1 0x20 ADD DUP1 DUP4 GT PUSH2 0x125 JUMPI DUP3 SWAP1 SUB PUSH1 0x1F AND DUP3 ADD SWAP2 JUMPDEST POP POP POP SWAP2 DUP4 MSTORE POP POP ADDRESS PUSH1 0x20 DUP1 DUP4 ADD SWAP2 SWAP1 SWAP2 MSTORE PUSH1 0x0 DUP1 SLOAD PUSH1 0x40 DUP1 MLOAD PUSH1 0x1F PUSH1 0x2 PUSH1 0x0 NOT PUSH2 0x100 PUSH1 0x1 DUP8 AND ISZERO MUL ADD SWAP1 SWAP5 AND SWAP4 SWAP1 SWAP4 DIV SWAP3 DUP4 ADD DUP6 SWAP1 DIV DUP6 MUL DUP2 ADD DUP6 ADD DUP3 MSTORE DUP3 DUP2 MSTORE SWAP5 ADD SWAP4 SWAP3 DUP4 ADD DUP3 DUP3 DUP1 ISZERO PUSH2 0x1DA JUMPI DUP1 PUSH1 0x1F LT PUSH2 0x1AF JUMPI PUSH2 0x100 DUP1 DUP4 SLOAD DIV MUL DUP4 MSTORE SWAP2 PUSH1 0x20 ADD SWAP2 PUSH2 0x1DA JUMP JUMPDEST DUP3 ADD SWAP2 SWAP1 PUSH1 0x0 MSTORE PUSH1 0x20 PUSH1 0x0 KECCAK256 SWAP1 JUMPDEST DUP2 SLOAD DUP2 MSTORE SWAP1 PUSH1 0x1 ADD SWAP1 PUSH1 0x20 ADD DUP1 DUP4 GT PUSH2 0x1BD JUMPI DUP3 SWAP1 SUB PUSH1 0x1F AND DUP3 ADD SWAP2 JUMPDEST POP POP POP SWAP2 DUP4 MSTORE POP POP PUSH1 0x1 DUP1 SLOAD PUSH1 0x40 DUP1 MLOAD PUSH1 0x20 PUSH1 0x2 DUP5 DUP7 AND ISZERO PUSH2 0x100 MUL PUSH1 0x0 NOT ADD SWAP1 SWAP5 AND SWAP4 SWAP1 SWAP4 DIV PUSH1 0x1F DUP2 ADD DUP5 SWAP1 DIV DUP5 MUL DUP3 ADD DUP5 ADD SWAP1 SWAP3 MSTORE DUP2 DUP2 MSTORE SWAP4 DUP3 ADD SWAP4 SWAP3 SWAP2 DUP4 ADD DUP3 DUP3 DUP1 ISZERO PUSH2 0x26B JUMPI DUP1 PUSH1 0x1F LT PUSH2 0x240 JUMPI PUSH2 0x100 DUP1 DUP4 SLOAD DIV MUL DUP4 MSTORE SWAP2 PUSH1 0x20 ADD SWAP2 PUSH2 0x26B JUMP JUMPDEST DUP3 ADD SWAP2 SWAP1 PUSH1 0x0 MSTORE PUSH1 0x20 PUSH1 0x0 KECCAK256 SWAP1 JUMPDEST DUP2 SLOAD DUP2 MSTORE SWAP1 PUSH1 0x1 ADD SWAP1 PUSH1 0x20 ADD DUP1 DUP4 GT PUSH2 0x24E JUMPI DUP3 SWAP1 SUB PUSH1 0x1F AND DUP3 ADD SWAP2 JUMPDEST POP POP POP SWAP2 SWAP1 SWAP3 MSTORE POP SWAP1 SWAP3 POP POP POP SWAP1 JUMP JUMPDEST PUSH2 0x283 PUSH2 0x4A9 JUMP JUMPDEST PUSH2 0x28B PUSH2 0x4CE JUMP JUMPDEST PUSH2 0x297 DUP6 DUP8 ADD DUP8 PUSH2 0x775 JUMP JUMPDEST SWAP1 POP PUSH2 0x2A1 PUSH2 0x4E5 JUMP JUMPDEST PUSH2 0x2AD DUP5 DUP7 ADD DUP7 PUSH2 0x750 JUMP JUMPDEST SWAP1 POP PUSH2 0x2B7 PUSH2 0x4A9 JUMP JUMPDEST PUSH2 0x2C3 DUP10 DUP12 ADD DUP12 PUSH2 0x673 JUMP JUMPDEST DUP3 MLOAD SWAP1 SWAP2 POP ISZERO DUP1 ISZERO SWAP1 PUSH2 0x2E5 JUMPI POP NUMBER DUP4 PUSH1 0x20 ADD MLOAD GT DUP1 PUSH2 0x2E5 JUMPI POP PUSH1 0x20 DUP4 ADD MLOAD ISZERO JUMPDEST ISZERO PUSH2 0x39F JUMPI PUSH1 0x0 PUSH1 0x2 DUP4 PUSH1 0x0 ADD MLOAD PUSH1 0x40 MLOAD PUSH1 0x20 ADD PUSH2 0x303 SWAP2 SWAP1 PUSH2 0x7FB JUMP JUMPDEST PUSH1 0x40 DUP1 MLOAD PUSH1 0x1F NOT DUP2 DUP5 SUB ADD DUP2 MSTORE SWAP1 DUP3 SWAP1 MSTORE PUSH2 0x31D SWAP2 PUSH2 0x7D4 JUMP JUMPDEST PUSH1 0x20 PUSH1 0x40 MLOAD DUP1 DUP4 SUB DUP2 DUP6 GAS STATICCALL ISZERO DUP1 ISZERO PUSH2 0x33A JUMPI RETURNDATASIZE PUSH1 0x0 DUP1 RETURNDATACOPY RETURNDATASIZE PUSH1 0x0 REVERT JUMPDEST POP POP POP PUSH1 0x40 MLOAD RETURNDATASIZE PUSH1 0x1F NOT PUSH1 0x1F DUP3 ADD AND DUP3 ADD DUP1 PUSH1 0x40 MSTORE POP DUP2 ADD SWAP1 PUSH2 0x35D SWAP2 SWAP1 PUSH2 0x55C JUMP JUMPDEST DUP5 MLOAD SWAP1 SWAP2 POP DUP2 EQ PUSH2 0x389 JUMPI PUSH1 0x40 MLOAD PUSH3 0x461BCD PUSH1 0xE5 SHL DUP2 MSTORE PUSH1 0x4 ADD PUSH2 0x380 SWAP1 PUSH2 0x861 JUMP JUMPDEST PUSH1 0x40 MLOAD DUP1 SWAP2 SUB SWAP1 REVERT JUMPDEST POP DUP1 MLOAD DUP1 MLOAD PUSH1 0x20 SWAP1 SWAP2 ADD MSTORE DUP1 MLOAD PUSH1 0x0 SWAP1 MSTORE PUSH2 0x3BE JUMP JUMPDEST DUP2 MLOAD ISZERO PUSH2 0x3BE JUMPI PUSH1 0x40 MLOAD PUSH3 0x461BCD PUSH1 0xE5 SHL DUP2 MSTORE PUSH1 0x4 ADD PUSH2 0x380 SWAP1 PUSH2 0x913 JUMP JUMPDEST SWAP10 SWAP9 POP POP POP POP POP POP POP POP POP JUMP JUMPDEST PUSH1 0x0 PUSH2 0x3D5 PUSH2 0x4CE JUMP JUMPDEST PUSH2 0x3E1 DUP4 DUP6 ADD DUP6 PUSH2 0x775 JUMP JUMPDEST SWAP1 POP PUSH2 0x3EB PUSH2 0x4A9 JUMP JUMPDEST PUSH2 0x3F7 DUP7 DUP9 ADD DUP9 PUSH2 0x673 JUMP JUMPDEST DUP1 MLOAD PUSH1 0x20 ADD MLOAD SWAP1 SWAP2 POP ISZERO PUSH2 0x41D JUMPI PUSH1 0x40 MLOAD PUSH3 0x461BCD PUSH1 0xE5 SHL DUP2 MSTORE PUSH1 0x4 ADD PUSH2 0x380 SWAP1 PUSH2 0x804 JUMP JUMPDEST DUP2 MLOAD PUSH2 0x43B JUMPI PUSH1 0x40 MLOAD PUSH3 0x461BCD PUSH1 0xE5 SHL DUP2 MSTORE PUSH1 0x4 ADD PUSH2 0x380 SWAP1 PUSH2 0x95C JUMP JUMPDEST NUMBER DUP3 PUSH1 0x20 ADD MLOAD GT DUP1 PUSH2 0x44F JUMPI POP PUSH1 0x20 DUP3 ADD MLOAD ISZERO JUMPDEST PUSH2 0x46B JUMPI PUSH1 0x40 MLOAD PUSH3 0x461BCD PUSH1 0xE5 SHL DUP2 MSTORE PUSH1 0x4 ADD PUSH2 0x380 SWAP1 PUSH2 0x8BE JUMP JUMPDEST POP PUSH1 0x1 SWAP7 SWAP6 POP POP POP POP POP POP JUMP JUMPDEST PUSH1 0x40 MLOAD DUP1 PUSH1 0x80 ADD PUSH1 0x40 MSTORE DUP1 PUSH1 0x60 DUP2 MSTORE PUSH1 0x20 ADD PUSH1 0x0 PUSH1 0x1 PUSH1 0x1 PUSH1 0xA0 SHL SUB AND DUP2 MSTORE PUSH1 0x20 ADD PUSH1 0x60 DUP2 MSTORE PUSH1 0x20 ADD PUSH1 0x60 DUP2 MSTORE POP SWAP1 JUMP JUMPDEST PUSH1 0x40 MLOAD DUP1 PUSH1 0x40 ADD PUSH1 0x40 MSTORE DUP1 PUSH2 0x4BC PUSH2 0x4F7 JUMP JUMPDEST DUP2 MSTORE PUSH1 0x20 ADD PUSH2 0x4C9 PUSH2 0x4F7 JUMP JUMPDEST SWAP1 MSTORE SWAP1 JUMP JUMPDEST PUSH1 0x40 DUP1 MLOAD DUP1 DUP3 ADD SWAP1 SWAP2 MSTORE PUSH1 0x0 DUP1 DUP3 MSTORE PUSH1 0x20 DUP3 ADD MSTORE SWAP1 JUMP JUMPDEST PUSH1 0x40 DUP1 MLOAD PUSH1 0x20 DUP2 ADD SWAP1 SWAP2 MSTORE PUSH1 0x0 DUP2 MSTORE SWAP1 JUMP JUMPDEST PUSH1 0x40 MLOAD DUP1 PUSH1 0x40 ADD PUSH1 0x40 MSTORE DUP1 PUSH1 0x2 SWAP1 PUSH1 0x20 DUP3 MUL DUP1 CALLDATASIZE DUP4 CALLDATACOPY POP SWAP2 SWAP3 SWAP2 POP POP JUMP JUMPDEST PUSH1 0x0 DUP1 DUP4 PUSH1 0x1F DUP5 ADD SLT PUSH2 0x526 JUMPI DUP2 DUP3 REVERT JUMPDEST POP DUP2 CALLDATALOAD PUSH8 0xFFFFFFFFFFFFFFFF DUP2 GT ISZERO PUSH2 0x53D JUMPI DUP2 DUP3 REVERT JUMPDEST PUSH1 0x20 DUP4 ADD SWAP2 POP DUP4 PUSH1 0x20 DUP3 DUP6 ADD ADD GT ISZERO PUSH2 0x555 JUMPI PUSH1 0x0 DUP1 REVERT JUMPDEST SWAP3 POP SWAP3 SWAP1 POP JUMP JUMPDEST PUSH1 0x0 PUSH1 0x20 DUP3 DUP5 SUB SLT ISZERO PUSH2 0x56D JUMPI DUP1 DUP2 REVERT JUMPDEST POP MLOAD SWAP2 SWAP1 POP JUMP JUMPDEST PUSH1 0x0 DUP1 PUSH1 0x0 DUP1 PUSH1 0x40 DUP6 DUP8 SUB SLT ISZERO PUSH2 0x589 JUMPI DUP3 DUP4 REVERT JUMPDEST DUP5 CALLDATALOAD PUSH8 0xFFFFFFFFFFFFFFFF DUP1 DUP3 GT ISZERO PUSH2 0x5A0 JUMPI DUP5 DUP6 REVERT JUMPDEST PUSH2 0x5AC DUP9 DUP4 DUP10 ADD PUSH2 0x515 JUMP JUMPDEST SWAP1 SWAP7 POP SWAP5 POP PUSH1 0x20 DUP8 ADD CALLDATALOAD SWAP2 POP DUP1 DUP3 GT ISZERO PUSH2 0x5C4 JUMPI DUP4 DUP5 REVERT JUMPDEST POP PUSH2 0x5D1 DUP8 DUP3 DUP9 ADD PUSH2 0x515 JUMP JUMPDEST SWAP6 SWAP9 SWAP5 SWAP8 POP SWAP6 POP POP POP POP JUMP JUMPDEST PUSH1 0x0 DUP1 PUSH1 0x0 DUP1 PUSH1 0x0 DUP1 PUSH1 0x60 DUP8 DUP10 SUB SLT ISZERO PUSH2 0x5F5 JUMPI DUP2 DUP3 REVERT JUMPDEST DUP7 CALLDATALOAD PUSH8 0xFFFFFFFFFFFFFFFF DUP1 DUP3 GT ISZERO PUSH2 0x60C JUMPI DUP4 DUP5 REVERT JUMPDEST PUSH2 0x618 DUP11 DUP4 DUP12 ADD PUSH2 0x515 JUMP JUMPDEST SWAP1 SWAP9 POP SWAP7 POP PUSH1 0x20 DUP10 ADD CALLDATALOAD SWAP2 POP DUP1 DUP3 GT ISZERO PUSH2 0x630 JUMPI DUP4 DUP5 REVERT JUMPDEST PUSH2 0x63C DUP11 DUP4 DUP12 ADD PUSH2 0x515 JUMP JUMPDEST SWAP1 SWAP7 POP SWAP5 POP PUSH1 0x40 DUP10 ADD CALLDATALOAD SWAP2 POP DUP1 DUP3 GT ISZERO PUSH2 0x654 JUMPI DUP4 DUP5 REVERT JUMPDEST POP PUSH2 0x661 DUP10 DUP3 DUP11 ADD PUSH2 0x515 JUMP JUMPDEST SWAP8 SWAP11 SWAP7 SWAP10 POP SWAP5 SWAP8 POP SWAP3 SWAP6 SWAP4 SWAP5 SWAP3 POP POP POP JUMP JUMPDEST PUSH1 0x0 PUSH1 0x80 DUP3 DUP5 SUB SLT ISZERO PUSH2 0x684 JUMPI DUP1 DUP2 REVERT JUMPDEST PUSH2 0x68E PUSH1 0x40 PUSH2 0xA8C JUMP JUMPDEST DUP4 PUSH1 0x1F DUP5 ADD SLT PUSH2 0x69C JUMPI DUP2 DUP3 REVERT JUMPDEST PUSH2 0x6A6 PUSH1 0x40 PUSH2 0xA8C JUMP JUMPDEST DUP1 DUP5 PUSH1 0x40 DUP7 ADD DUP8 DUP2 GT ISZERO PUSH2 0x6B8 JUMPI DUP6 DUP7 REVERT JUMPDEST DUP6 JUMPDEST PUSH1 0x2 DUP2 LT ISZERO PUSH2 0x6D9 JUMPI DUP3 CALLDATALOAD DUP6 MSTORE PUSH1 0x20 SWAP5 DUP6 ADD SWAP5 SWAP1 SWAP3 ADD SWAP2 PUSH1 0x1 ADD PUSH2 0x6BA JUMP JUMPDEST POP DUP3 DUP6 MSTORE DUP8 PUSH1 0x5F DUP9 ADD SLT PUSH2 0x6EB JUMPI DUP6 DUP7 REVERT JUMPDEST PUSH2 0x6F5 PUSH1 0x40 PUSH2 0xA8C JUMP JUMPDEST SWAP4 POP DUP4 SWAP3 POP SWAP1 POP PUSH1 0x80 DUP7 ADD DUP8 LT ISZERO PUSH2 0x70B JUMPI DUP5 DUP6 REVERT JUMPDEST DUP5 JUMPDEST PUSH1 0x2 DUP2 LT ISZERO PUSH2 0x741 JUMPI DUP2 CALLDATALOAD PUSH1 0x1 PUSH1 0x1 PUSH1 0xA0 SHL SUB DUP2 AND DUP2 EQ PUSH2 0x72C JUMPI DUP7 DUP8 REVERT JUMPDEST DUP5 MSTORE PUSH1 0x20 SWAP4 DUP5 ADD SWAP4 SWAP2 SWAP1 SWAP2 ADD SWAP1 PUSH1 0x1 ADD PUSH2 0x70D JUMP JUMPDEST POP POP PUSH1 0x20 DUP4 ADD MSTORE POP SWAP4 SWAP3 POP POP POP JUMP JUMPDEST PUSH1 0x0 PUSH1 0x20 DUP3 DUP5 SUB SLT ISZERO PUSH2 0x761 JUMPI DUP1 DUP2 REVERT JUMPDEST PUSH2 0x76B PUSH1 0x20 PUSH2 0xA8C JUMP JUMPDEST SWAP2 CALLDATALOAD DUP3 MSTORE POP SWAP2 SWAP1 POP JUMP JUMPDEST PUSH1 0x0 PUSH1 0x40 DUP3 DUP5 SUB SLT ISZERO PUSH2 0x786 JUMPI DUP1 DUP2 REVERT JUMPDEST PUSH2 0x790 PUSH1 0x40 PUSH2 0xA8C JUMP JUMPDEST DUP3 CALLDATALOAD DUP2 MSTORE PUSH1 0x20 DUP4 ADD CALLDATALOAD PUSH1 0x20 DUP3 ADD MSTORE DUP1 SWAP2 POP POP SWAP3 SWAP2 POP POP JUMP JUMPDEST PUSH1 0x0 DUP2 MLOAD DUP1 DUP5 MSTORE PUSH2 0x7C0 DUP2 PUSH1 0x20 DUP7 ADD PUSH1 0x20 DUP7 ADD PUSH2 0xAB3 JUMP JUMPDEST PUSH1 0x1F ADD PUSH1 0x1F NOT AND SWAP3 SWAP1 SWAP3 ADD PUSH1 0x20 ADD SWAP3 SWAP2 POP POP JUMP JUMPDEST PUSH1 0x0 DUP3 MLOAD PUSH2 0x7E6 DUP2 DUP5 PUSH1 0x20 DUP8 ADD PUSH2 0xAB3 JUMP JUMPDEST SWAP2 SWAP1 SWAP2 ADD SWAP3 SWAP2 POP POP JUMP JUMPDEST SWAP1 ISZERO ISZERO DUP2 MSTORE PUSH1 0x20 ADD SWAP1 JUMP JUMPDEST SWAP1 DUP2 MSTORE PUSH1 0x20 ADD SWAP1 JUMP JUMPDEST PUSH1 0x20 DUP1 DUP3 MSTORE PUSH1 0x3E SWAP1 DUP3 ADD MSTORE PUSH32 0x43616E6E6F742063726561746520686173686C6F636B207472616E7366657220 PUSH1 0x40 DUP3 ADD MSTORE PUSH32 0x77697468206E6F6E7A65726F20726563697069656E742062616C616E63650000 PUSH1 0x60 DUP3 ADD MSTORE PUSH1 0x80 ADD SWAP1 JUMP JUMPDEST PUSH1 0x20 DUP1 DUP3 MSTORE PUSH1 0x39 SWAP1 DUP3 ADD MSTORE PUSH32 0x486173682067656E6572617465642066726F6D20707265696D61676520646F65 PUSH1 0x40 DUP3 ADD MSTORE PUSH32 0x73206E6F74206D61746368206861736820696E20737461746500000000000000 PUSH1 0x60 DUP3 ADD MSTORE PUSH1 0x80 ADD SWAP1 JUMP JUMPDEST PUSH1 0x20 DUP1 DUP3 MSTORE PUSH1 0x35 SWAP1 DUP3 ADD MSTORE PUSH32 0x43616E6E6F742063726561746520686173686C6F636B207472616E7366657220 PUSH1 0x40 DUP3 ADD MSTORE PUSH21 0x7769746820657870697265642074696D656C6F636B PUSH1 0x58 SHL PUSH1 0x60 DUP3 ADD MSTORE PUSH1 0x80 ADD SWAP1 JUMP JUMPDEST PUSH1 0x20 DUP1 DUP3 MSTORE PUSH1 0x29 SWAP1 DUP3 ADD MSTORE PUSH32 0x4D7573742070726F7669646520656D707479206861736820746F2063616E6365 PUSH1 0x40 DUP3 ADD MSTORE PUSH9 0x1B081C185E5B595B9D PUSH1 0xBA SHL PUSH1 0x60 DUP3 ADD MSTORE PUSH1 0x80 ADD SWAP1 JUMP JUMPDEST PUSH1 0x20 DUP1 DUP3 MSTORE PUSH1 0x33 SWAP1 DUP3 ADD MSTORE PUSH32 0x43616E6E6F742063726561746520686173686C6F636B207472616E7366657220 PUSH1 0x40 DUP3 ADD MSTORE PUSH19 0xEED2E8D040CADAE0E8F240D8DEC6D690C2E6D PUSH1 0x6B SHL PUSH1 0x60 DUP3 ADD MSTORE PUSH1 0x80 ADD SWAP1 JUMP JUMPDEST DUP2 MLOAD PUSH1 0x80 DUP3 ADD SWAP1 DUP3 PUSH1 0x0 JUMPDEST PUSH1 0x2 DUP2 LT ISZERO PUSH2 0x9D9 JUMPI DUP3 MLOAD DUP3 MSTORE PUSH1 0x20 SWAP3 DUP4 ADD SWAP3 SWAP1 SWAP2 ADD SWAP1 PUSH1 0x1 ADD PUSH2 0x9BA JUMP JUMPDEST POP POP POP PUSH1 0x20 DUP1 DUP5 ADD MLOAD PUSH1 0x40 DUP5 ADD PUSH1 0x0 JUMPDEST PUSH1 0x2 DUP2 LT ISZERO PUSH2 0xA0F JUMPI DUP3 MLOAD PUSH1 0x1 PUSH1 0x1 PUSH1 0xA0 SHL SUB AND DUP3 MSTORE SWAP2 DUP4 ADD SWAP2 SWAP1 DUP4 ADD SWAP1 PUSH1 0x1 ADD PUSH2 0x9E9 JUMP JUMPDEST POP POP POP POP SWAP3 SWAP2 POP POP JUMP JUMPDEST PUSH1 0x0 PUSH1 0x20 DUP3 MSTORE DUP3 MLOAD PUSH1 0x80 PUSH1 0x20 DUP5 ADD MSTORE PUSH2 0xA35 PUSH1 0xA0 DUP5 ADD DUP3 PUSH2 0x7A8 JUMP JUMPDEST SWAP1 POP PUSH1 0x1 DUP1 PUSH1 0xA0 SHL SUB PUSH1 0x20 DUP6 ADD MLOAD AND PUSH1 0x40 DUP5 ADD MSTORE PUSH1 0x40 DUP5 ADD MLOAD PUSH1 0x1F NOT DUP1 DUP6 DUP5 SUB ADD PUSH1 0x60 DUP7 ADD MSTORE PUSH2 0xA65 DUP4 DUP4 PUSH2 0x7A8 JUMP JUMPDEST SWAP3 POP PUSH1 0x60 DUP7 ADD MLOAD SWAP2 POP DUP1 DUP6 DUP5 SUB ADD PUSH1 0x80 DUP7 ADD MSTORE POP PUSH2 0xA83 DUP3 DUP3 PUSH2 0x7A8 JUMP JUMPDEST SWAP6 SWAP5 POP POP POP POP POP JUMP JUMPDEST PUSH1 0x40 MLOAD DUP2 DUP2 ADD PUSH8 0xFFFFFFFFFFFFFFFF DUP2 GT DUP3 DUP3 LT OR ISZERO PUSH2 0xAAB JUMPI PUSH1 0x0 DUP1 REVERT JUMPDEST PUSH1 0x40 MSTORE SWAP2 SWAP1 POP JUMP JUMPDEST PUSH1 0x0 JUMPDEST DUP4 DUP2 LT ISZERO PUSH2 0xACE JUMPI DUP2 DUP2 ADD MLOAD DUP4 DUP3 ADD MSTORE PUSH1 0x20 ADD PUSH2 0xAB6 JUMP JUMPDEST DUP4 DUP2 GT ISZERO PUSH2 0xADD JUMPI PUSH1 0x0 DUP5 DUP5 ADD MSTORE JUMPDEST POP POP POP POP JUMP INVALID LOG2 PUSH5 0x6970667358 0x22 SLT KECCAK256 CHAINID 0x29 0xDE 0xBC 0xC4 0xAB 0xD9 0xE3 0xEA 0x4F SELFBALANCE KECCAK256 EQ 0x2E 0xEF SDIV SUB 0xDE 0x5E 0xB0 GAS 0xDD 0xEB PUSH21 0x9A82AEA8F4E1002E64736F6C634300070100337475 PUSH17 0x6C652862797465733332206C6F636B4861 PUSH20 0x682C2075696E7432353620657870697279290000 "
        },
        "methodIdentifiers": {
          "create(bytes,bytes)": "94184ba9",
          "getRegistryInformation()": "206162be",
          "resolve(bytes,bytes,bytes)": "8ef98a7e"
        }
      }
    }
  }
}