{
  "_format": "hh-sol-artifact-1",
  "contractName": "HashlockTransfer",
  "sourceName": "contracts/hashlock/Hashlock.sol",
  "abi": [
    {
      "inputs": [
        {
          "internalType": "bytes",
          "name": "encodedBalance",
          "type": "bytes"
        },
        {
          "internalType": "bytes",
          "name": "encodedState",
          "type": "bytes"
        }
      ],
      "name": "create",
      "outputs": [
        {
          "internalType": "bool",
          "name": "",
          "type": "bool"
        }
      ],
      "stateMutability": "view",
      "type": "function"
    },
    {
      "inputs": [],
      "name": "getRegistryInformation",
      "outputs": [
        {
          "components": [
            {
              "internalType": "string",
              "name": "name",
              "type": "string"
            },
            {
              "internalType": "address",
              "name": "definition",
              "type": "address"
            },
            {
              "internalType": "string",
              "name": "stateEncoding",
              "type": "string"
            },
            {
              "internalType": "string",
              "name": "resolverEncoding",
              "type": "string"
            }
          ],
          "internalType": "struct RegisteredTransfer",
          "name": "",
          "type": "tuple"
        }
      ],
      "stateMutability": "view",
      "type": "function"
    },
    {
      "inputs": [
        {
          "internalType": "bytes",
          "name": "encodedBalance",
          "type": "bytes"
        },
        {
          "internalType": "bytes",
          "name": "encodedState",
          "type": "bytes"
        },
        {
          "internalType": "bytes",
          "name": "encodedResolver",
          "type": "bytes"
        }
      ],
      "name": "resolve",
      "outputs": [
        {
          "components": [
            {
              "internalType": "uint256[2]",
              "name": "amount",
              "type": "uint256[2]"
            },
            {
              "internalType": "address payable[2]",
              "name": "to",
              "type": "address[2]"
            }
          ],
          "internalType": "struct Balance",
          "name": "",
          "type": "tuple"
        }
      ],
      "stateMutability": "view",
      "type": "function"
    }
  ],
  "bytecode": "0x60e06040526027608081815290610c7160a0398051610026916000916020909101906100b6565b506040805180820190915260178082527f7475706c65286279746573333220707265496d61676529000000000000000000602090920191825261006b916001916100b6565b506040805180820190915260108082526f2430b9b43637b1b5aa3930b739b332b960811b60209092019182526100a3916002916100b6565b503480156100b057600080fd5b50610149565b828054600181600116156101000203166002900490600052602060002090601f016020900481019282601f106100f757805160ff1916838001178555610124565b82800160010185558215610124579182015b82811115610124578251825591602001919060010190610109565b50610130929150610134565b5090565b5b808211156101305760008155600101610135565b610b19806101586000396000f3fe608060405234801561001057600080fd5b50600436106100415760003560e01c8063206162be146100465780638ef98a7e1461006457806394184ba914610084575b600080fd5b61004e6100a4565b60405161005b9190610a19565b60405180910390f35b6100776100723660046105dd565b61027b565b60405161005b91906109af565b610097610092366004610574565b6103cb565b60405161005b91906107f0565b6100ac610478565b6100b4610478565b604080516002805460a06020601f60001961010060018616150201909316849004928301819004028401810190945260808301818152929384939291908401828280156101425780601f1061011757610100808354040283529160200191610142565b820191906000526020600020905b81548152906001019060200180831161012557829003601f168201915b5050509183525050306020808301919091526000805460408051601f600260001961010060018716150201909416939093049283018590048502810185018252828152940193928301828280156101da5780601f106101af576101008083540402835291602001916101da565b820191906000526020600020905b8154815290600101906020018083116101bd57829003601f168201915b505050918352505060018054604080516020600284861615610100026000190190941693909304601f810184900484028201840190925281815293820193929183018282801561026b5780601f106102405761010080835404028352916020019161026b565b820191906000526020600020905b81548152906001019060200180831161024e57829003601f168201915b5050509190925250909250505090565b6102836104a9565b61028b6104ce565b61029785870187610775565b90506102a16104e5565b6102ad84860186610750565b90506102b76104a9565b6102c3898b018b610673565b8251909150158015906102e5575043836020015111806102e557506020830151155b1561039f5760006002836000015160405160200161030391906107fb565b60408051601f198184030181529082905261031d916107d4565b602060405180830381855afa15801561033a573d6000803e3d6000fd5b5050506040513d601f19601f8201168201806040525081019061035d919061055c565b845190915081146103895760405162461bcd60e51b815260040161038090610861565b60405180910390fd5b50805180516020909101528051600090526103be565b8151156103be5760405162461bcd60e51b815260040161038090610913565b9998505050505050505050565b60006103d56104ce565b6103e183850185610775565b90506103eb6104a9565b6103f786880188610673565b8051602001519091501561041d5760405162461bcd60e51b815260040161038090610804565b815161043b5760405162461bcd60e51b81526004016103809061095c565b438260200151118061044f57506020820151155b61046b5760405162461bcd60e51b8152600401610380906108be565b5060019695505050505050565b60405180608001604052806060815260200160006001600160a01b0316815260200160608152602001606081525090565b60405180604001604052806104bc6104f7565b81526020016104c96104f7565b905290565b604080518082019091526000808252602082015290565b60408051602081019091526000815290565b60405180604001604052806002906020820280368337509192915050565b60008083601f840112610526578182fd5b50813567ffffffffffffffff81111561053d578182fd5b60208301915083602082850101111561055557600080fd5b9250929050565b60006020828403121561056d578081fd5b5051919050565b60008060008060408587031215610589578283fd5b843567ffffffffffffffff808211156105a0578485fd5b6105ac88838901610515565b909650945060208701359150808211156105c4578384fd5b506105d187828801610515565b95989497509550505050565b600080600080600080606087890312156105f5578182fd5b863567ffffffffffffffff8082111561060c578384fd5b6106188a838b01610515565b90985096506020890135915080821115610630578384fd5b61063c8a838b01610515565b90965094506040890135915080821115610654578384fd5b5061066189828a01610515565b979a9699509497509295939492505050565b600060808284031215610684578081fd5b61068e6040610a8c565b83601f84011261069c578182fd5b6106a66040610a8c565b808460408601878111156106b8578586fd5b855b60028110156106d95782358552602094850194909201916001016106ba565b5082855287605f8801126106eb578586fd5b6106f56040610a8c565b935083925090506080860187101561070b578485fd5b845b60028110156107415781356001600160a01b038116811461072c578687fd5b8452602093840193919091019060010161070d565b50506020830152509392505050565b600060208284031215610761578081fd5b61076b6020610a8c565b9135825250919050565b600060408284031215610786578081fd5b6107906040610a8c565b82358152602083013560208201528091505092915050565b600081518084526107c0816020860160208601610ab3565b601f01601f19169290920160200192915050565b600082516107e6818460208701610ab3565b9190910192915050565b901515815260200190565b90815260200190565b6020808252603e908201527f43616e6e6f742063726561746520686173686c6f636b207472616e736665722060408201527f77697468206e6f6e7a65726f20726563697069656e742062616c616e63650000606082015260800190565b60208082526039908201527f486173682067656e6572617465642066726f6d20707265696d61676520646f6560408201527f73206e6f74206d61746368206861736820696e20737461746500000000000000606082015260800190565b60208082526035908201527f43616e6e6f742063726561746520686173686c6f636b207472616e73666572206040820152747769746820657870697265642074696d656c6f636b60581b606082015260800190565b60208082526029908201527f4d7573742070726f7669646520656d707479206861736820746f2063616e63656040820152681b081c185e5b595b9d60ba1b606082015260800190565b60208082526033908201527f43616e6e6f742063726561746520686173686c6f636b207472616e73666572206040820152720eed2e8d040cadae0e8f240d8dec6d690c2e6d606b1b606082015260800190565b815160808201908260005b60028110156109d95782518252602092830192909101906001016109ba565b5050506020808401516040840160005b6002811015610a0f5782516001600160a01b0316825291830191908301906001016109e9565b5050505092915050565b600060208252825160806020840152610a3560a08401826107a8565b905060018060a01b0360208501511660408401526040840151601f1980858403016060860152610a6583836107a8565b9250606086015191508085840301608086015250610a8382826107a8565b95945050505050565b60405181810167ffffffffffffffff81118282101715610aab57600080fd5b604052919050565b60005b83811015610ace578181015183820152602001610ab6565b83811115610add576000848401525b5050505056fea26469706673582212204629debcc4abd9e3ea4f4720142eef0503de5eb05addeb749a82aea8f4e1002e64736f6c634300070100337475706c652862797465733332206c6f636b486173682c2075696e743235362065787069727929",
  "linkReferences": {},
  "deployedLinkReferences": {}
}