{
  "_format": "hh-sol-artifact-1",
  "contractName": "Withdraw",
  "sourceName": "contracts/withdraw/Withdraw.sol",
  "abi": [
    {
      "inputs": [
        {
          "internalType": "bytes",
          "name": "encodedBalance",
          "type": "bytes"
        },
        {
          "internalType": "bytes",
          "name": "encodedState",
          "type": "bytes"
        }
      ],
      "name": "create",
      "outputs": [
        {
          "internalType": "bool",
          "name": "",
          "type": "bool"
        }
      ],
      "stateMutability": "pure",
      "type": "function"
    },
    {
      "inputs": [],
      "name": "getRegistryInformation",
      "outputs": [
        {
          "components": [
            {
              "internalType": "string",
              "name": "name",
              "type": "string"
            },
            {
              "internalType": "address",
              "name": "definition",
              "type": "address"
            },
            {
              "internalType": "string",
              "name": "stateEncoding",
              "type": "string"
            },
            {
              "internalType": "string",
              "name": "resolverEncoding",
              "type": "string"
            }
          ],
          "internalType": "struct RegisteredTransfer",
          "name": "",
          "type": "tuple"
        }
      ],
      "stateMutability": "view",
      "type": "function"
    },
    {
      "inputs": [
        {
          "internalType": "bytes",
          "name": "encodedBalance",
          "type": "bytes"
        },
        {
          "internalType": "bytes",
          "name": "encodedState",
          "type": "bytes"
        },
        {
          "internalType": "bytes",
          "name": "encodedResolver",
          "type": "bytes"
        }
      ],
      "name": "resolve",
      "outputs": [
        {
          "components": [
            {
              "internalType": "uint256[2]",
              "name": "amount",
              "type": "uint256[2]"
            },
            {
              "internalType": "address payable[2]",
              "name": "to",
              "type": "address[2]"
            }
          ],
          "internalType": "struct Balance",
          "name": "",
          "type": "tuple"
        }
      ],
      "stateMutability": "pure",
      "type": "function"
    }
  ],
  "bytecode": "0x610120604052606f6080818152906200108160a03980516200002a91600091602090910190620000b8565b5060408051808201909152601f8082527f7475706c6528627974657320726573706f6e6465725369676e6174757265290060209092019182526200007191600191620000b8565b5060408051808201909152600880825267576974686472617760c01b6020909201918252620000a391600291620000b8565b50348015620000b157600080fd5b5062000154565b828054600181600116156101000203166002900490600052602060002090601f016020900481019282601f10620000fb57805160ff19168380011785556200012b565b828001600101855582156200012b579182015b828111156200012b5782518255916020019190600101906200010e565b50620001399291506200013d565b5090565b5b808211156200013957600081556001016200013e565b610f1d80620001646000396000f3fe608060405234801561001057600080fd5b50600436106100415760003560e01c8063206162be146100465780638ef98a7e1461006457806394184ba914610084575b600080fd5b61004e6100a4565b60405161005b9190610e35565b60405180910390f35b61007761007236600461081d565b61027b565b60405161005b9190610dcb565b6100976100923660046107b4565b610364565b60405161005b9190610b24565b6100ac610648565b6100b4610648565b604080516002805460a06020601f60001961010060018616150201909316849004928301819004028401810190945260808301818152929384939291908401828280156101425780601f1061011757610100808354040283529160200191610142565b820191906000526020600020905b81548152906001019060200180831161012557829003601f168201915b5050509183525050306020808301919091526000805460408051601f600260001961010060018716150201909416939093049283018590048502810185018252828152940193928301828280156101da5780601f106101af576101008083540402835291602001916101da565b820191906000526020600020905b8154815290600101906020018083116101bd57829003601f168201915b505050918352505060018054604080516020600284861615610100026000190190941693909304601f810184900484028201840190925281815293820193929183018282801561026b5780601f106102405761010080835404028352916020019161026b565b820191906000526020600020905b81548152906001019060200180831161024e57829003601f168201915b5050509190925250909250505090565b610283610679565b61028b61069e565b610297858701876109f0565b90506102a16106d3565b6102ad84860186610985565b90506102b7610679565b6102c3898b018b6108b3565b60408051604180825260808201909252919250606091906020820181803683370190505090508080519060200120836000015180519060200120141561030857610356565b82516040850151606086015161031f9290916104a2565b6103445760405162461bcd60e51b815260040161033b90610bf2565b60405180910390fd5b60a08401518251602001528151600090525b509998505050505050505050565b600061036e61069e565b61037a838501856109f0565b9050610384610679565b610390868801886108b3565b805160200151909150156103b65760405162461bcd60e51b815260040161033b90610d2b565b60208201516001600160a01b0316158015906103de575060408201516001600160a01b031615155b6103fa5760405162461bcd60e51b815260040161033b90610bbb565b606082015161041b5760405162461bcd60e51b815260040161033b90610d6e565b608082015161043c5760405162461bcd60e51b815260040161033b90610d9c565b80515160a083015111156104625760405162461bcd60e51b815260040161033b90610cb2565b8151602083015160608401516104799290916104a2565b6104955760405162461bcd60e51b815260040161033b90610c7b565b5060019695505050505050565b6000816001600160a01b03166104b885856104ca565b6001600160a01b031614949350505050565b6000806104d6846104ea565b90506104e2818461051a565b949350505050565b6000816040516020016104fd9190610af3565b604051602081830303815290604052805190602001209050919050565b6000815160411461053d5760405162461bcd60e51b815260040161033b90610b84565b60208201516040830151606084015160001a7f7fffffffffffffffffffffffffffffff5d576e7357a4501ddfe92f46681b20a082111561058f5760405162461bcd60e51b815260040161033b90610c39565b8060ff16601b141580156105a757508060ff16601c14155b156105c45760405162461bcd60e51b815260040161033b90610ce9565b6000600187838686604051600081526020016040526040516105e99493929190610b2f565b6020604051602081039080840390855afa15801561060b573d6000803e3d6000fd5b5050604051601f1901519150506001600160a01b03811661063e5760405162461bcd60e51b815260040161033b90610b4d565b9695505050505050565b60405180608001604052806060815260200160006001600160a01b0316815260200160608152602001606081525090565b604051806040016040528061068c6106e6565b81526020016106996106e6565b905290565b6040805160c081018252606080825260006020830181905292820183905281018290526080810182905260a081019190915290565b6040518060200160405280606081525090565b60405180604001604052806002906020820280368337509192915050565b60008083601f840112610715578182fd5b50813567ffffffffffffffff81111561072c578182fd5b60208301915083602082850101111561074457600080fd5b9250929050565b600082601f83011261075b578081fd5b813567ffffffffffffffff811115610771578182fd5b610784601f8201601f1916602001610ea8565b915080825283602082850101111561079b57600080fd5b8060208401602084013760009082016020015292915050565b600080600080604085870312156107c9578384fd5b843567ffffffffffffffff808211156107e0578586fd5b6107ec88838901610704565b90965094506020870135915080821115610804578384fd5b5061081187828801610704565b95989497509550505050565b60008060008060008060608789031215610835578182fd5b863567ffffffffffffffff8082111561084c578384fd5b6108588a838b01610704565b90985096506020890135915080821115610870578384fd5b61087c8a838b01610704565b90965094506040890135915080821115610894578384fd5b506108a189828a01610704565b979a9699509497509295939492505050565b6000608082840312156108c4578081fd5b6108ce6040610ea8565b83601f8401126108dc578182fd5b6108e66040610ea8565b808460408601878111156108f8578586fd5b855b60028110156109195782358552602094850194909201916001016108fa565b5082855287605f88011261092b578586fd5b6109356040610ea8565b935083925090506080860187101561094b578485fd5b845b600281101561097657813561096181610ecf565b8452602093840193919091019060010161094d565b50506020830152509392505050565b600060208284031215610996578081fd5b813567ffffffffffffffff808211156109ad578283fd5b90830190602082860312156109c0578283fd5b6109ca6020610ea8565b8235828111156109d8578485fd5b6109e48782860161074b565b82525095945050505050565b600060208284031215610a01578081fd5b813567ffffffffffffffff80821115610a18578283fd5b9083019060c08286031215610a2b578283fd5b610a3560c0610ea8565b823582811115610a43578485fd5b610a4f8782860161074b565b82525060208301359150610a6282610ecf565b81602082015260408301359150610a7882610ecf565b816040820152606083013560608201526080830135608082015260a083013560a082015280935050505092915050565b60008151808452815b81811015610acd57602081850181015186830182015201610ab1565b81811115610ade5782602083870101525b50601f01601f19169290920160200192915050565b7f15496e647261205369676e6564204d6573736167653a0a3332000000000000008152601981019190915260390190565b901515815260200190565b93845260ff9290921660208401526040830152606082015260800190565b60208082526018908201527f45434453413a20696e76616c6964207369676e61747572650000000000000000604082015260600190565b6020808252601f908201527f45434453413a20696e76616c6964207369676e6174757265206c656e67746800604082015260600190565b60208082526017908201527f57697468647261773a20454d5054595f5349474e455253000000000000000000604082015260600190565b60208082526027908201527f57697468647261772e7265736f6c76653a20494e56414c49445f524553504f4e6040820152664445525f53494760c81b606082015260800190565b60208082526022908201527f45434453413a20696e76616c6964207369676e6174757265202773272076616c604082015261756560f01b606082015260800190565b6020808252601f908201527f57697468647261773a20494e56414c49445f494e49544941544f525f53494700604082015260600190565b6020808252601e908201527f57697468647261773a20494e53554646494349454e545f42414c414e43450000604082015260600190565b60208082526022908201527f45434453413a20696e76616c6964207369676e6174757265202776272076616c604082015261756560f01b606082015260800190565b60208082526023908201527f57697468647261773a204e4f4e5a45524f5f524543495049454e545f42414c416040820152624e434560e81b606082015260800190565b60208082526014908201527357697468647261773a20454d5054595f4441544160601b604082015260600190565b60208082526015908201527457697468647261773a20454d5054595f4e4f4e434560581b604082015260600190565b815160808201908260005b6002811015610df5578251825260209283019290910190600101610dd6565b5050506020808401516040840160005b6002811015610e2b5782516001600160a01b031682529183019190830190600101610e05565b5050505092915050565b600060208252825160806020840152610e5160a0840182610aa8565b905060018060a01b0360208501511660408401526040840151601f1980858403016060860152610e818383610aa8565b9250606086015191508085840301608086015250610e9f8282610aa8565b95945050505050565b60405181810167ffffffffffffffff81118282101715610ec757600080fd5b604052919050565b6001600160a01b0381168114610ee457600080fd5b5056fea264697066735822122007790665297cc92d0f6e1bc38e6063de71d3fd72d21e2f20c8f9518f251f421564736f6c634300070100337475706c6528627974657320696e69746961746f725369676e61747572652c206164647265737320696e69746961746f722c206164647265737320726573706f6e6465722c206279746573333220646174612c2075696e74323536206e6f6e63652c2075696e743235362066656529",
  "linkReferences": {},
  "deployedLinkReferences": {}
}